:020000040800F2
:10000000C80F0020016800084D6300084F63000816
:1000100051630008536300085563000800000000A6
:10002000000000000000000000000000576300080E
:1000300059630008000000005B6300085D6300086E
:10004000676800086B6800086F680008736800083C
:10005000776800087B6800087F680008696300080B
:10006000736300087D6300088763000883680008E5
:10007000876800088B6800088F680008936800088C
:10008000976800089B680008916300089F68000853
:100090009B630008A5630008AF630008B96300080C
:1000A000A3680008A7680008AB680008AF680008EC
:1000B000B3680008B7680008BB680008BF6800089C
:1000C000C3680008C7680008CB680008CF6800084C
:1000D000D3680008D7680008DB680008DF680008FC
:1000E000CB630008E3680008E7680008EB680008D5
:1000F000EF680008F3680008F7680008FB6800086C
:10010000FF68000803690008076900080B69000818
:100110000F69000813690008176900081B690008C7
:10012000D76300081F6900082369000827690008D1
:100130002B6900082F690008336900083769000837
:100140003B6900083F6900084369000847690008E7
:100150004B6900084F690008536900085769000897
:100160005B6900085F690008636900086769000847
:100170006B6900086F6900087369000800000000DF
:10018000776900087B6900082DE9F84F74A7A2B0D1
:10019000D7E90045CDE900452C9EDFF8307C04917D
:1001A0008DF843605FF000016FA40D9112944FF041
:1001B000FF368246904699460FE0C3462C461BF810
:1001C000011B0498D0470028049000F0B2800D98DD
:1001D000401C641E0D90F2D1A84498F80000252818
:1001E00007D100210791089109910A910B910C9177
:1001F0000DE06A463146404600F0D0FF050001D1CF
:100200000D98B5E0D9D50125E6E741F0010118F8D0
:10021000010F2028F9D023280CD02B2804D02D281A
:1002200005D0302809D086E041F00201EFE741F027
:100230000401ECE741F00801E9E741F01001E6E7CD
:1002400000200F900AE00F98B84205DA00EB800317
:1002500002EB4302303A0F9208F1010898F80020AF
:10026000A2F130000A28EED398F800002E2818BF1B
:100270000E9629D118F8010F2A280BD1D9F80000C1
:10028000C9F8000008F1010850F8042BC9F8000073
:100290000E9219E02D280CBF18F8010B0020002247
:1002A0000E920BE040B90E9ABA4205DA02EB8204D4
:1002B00003EB4403303B0E9308F1010898F800303B
:1002C000A3F130020A2AEDD3ADF84010129898F845
:1002D000001000F06DFF08B118F8010B8DF8420016
:1002E0009DF84200682804BF98F80010682903D1DF
:1002F00062208DF8420008E06C2804BF98F80000E6
:100300006C2804D171218DF8421008F1010813A85E
:1003100006904A4618F8013B02A9504600F068F8DA
:1003200038B913AA02A9504600F0CAF900287FF58F
:1003300054AF30461CE02A2882D1D9F80020C9F8F1
:10034000002052F8040BC9F8002000280F9003D5B4
:1003500040420F9041F0040108F1010884E70000D9
:100360000000000000000000686A6C747A4C000015
:1003700023B0BDE8F08F622820D0682811D06A2809
:1003800003D06C2827D0712825D10868C01D20F023
:1003900007000860D0E900230830086019461046BD
:1003A0007047002A0A680A60106803D0121D0A60AC
:1003B00000B217E0121D0A6080B217E0002A0A6836
:1003C0000A60106803D0121D0A6040B20AE0121DD4
:1003D0000A60C0B20AE0002A0A680A60106803D006
:1003E000121D0A60C1177047121D0A600021704774
:1003F0007CB50D4611461C462E69B4F1250200F06D
:100400004D811C3A00F08680121F022A40F2828041
:100410000E3A00F00781521F5AD0093A7AD0921E44
:1004200016D0521E35D0521E022A73D9121F30D058
:10043000521F00F09A80521E4AD0521E00F0E480F3
:10044000D21E00F0FD80921E42D0D21E40D02BE181
:1004500095F83A206C2A09D06869421C6A610A68DA
:100460000A6052F8043B0A60335427E10A680A60C4
:1004700052F8043B0A600021009301914FF0FF32D3
:100480002A6329466A4600F096F9002840F1168151
:1004900001E195F83A000122FFF76DFFC5E900017F
:1004A0000023994204DA6869411C69612D210DE03D
:1004B000288F810704D56869411C69612B2105E0FB
:1004C000C00722D56869411C6961202131541CE0B4
:1004D00095F83A000022FFF74EFFC5E9000195F8B4
:1004E0003800010711D5D5E900230020834208BF59
:1004F00082420AD044F02000782806D16869302171
:100500003154401C411C69613454214668693044AF
:10051000E86083E00868C01D20F007000860D0E9AB
:10052000002308300860C5E90023D5E90001C80FA1
:1005300004D06869411C69612D210DE0288F810775
:1005400004D56869411C69612B2105E0C00704D509
:100550006869411C69612021315468693044E86050
:100560002146284600F032FAA8E005F13A02507818
:1005700020B14FF0FF340FF6243070E0107862287D
:1005800008D0682824D06A2812D06C282ED0712870
:100590000ED02BE00A680A6052F8040B0A6020B9FA
:1005A0004FF0FF340FF60C3059E0E96A017085E036
:1005B0000A680A6052F8040B0A6020B94FF0FF3451
:1005C0000FF6F0204BE0EA6AD317C0E9002375E08C
:1005D0000A680A6052F8040B0A6020B94FF0FF3431
:1005E0000FF6D0203BE0E96A018067E00A680A6004
:1005F00052F8040B0A6020B94FF0FF340FF6B42014
:100600002DE0E96A016059E00A680A6052F8040BBB
:100610000A600021C5E90001EE607821284600F05B
:1006200029F94BE06C2285F83A200B680B6053F8EF
:10063000042B0B6052BB4FF0FF340FF6AC200EE0E2
:1006400095F83A206C2AF0D00868086050F8044BFE
:100650000860EC603CB94FF0FF340FF6702000F0FA
:10066000BFFD201A76BD2E6B002E04D5204600F06B
:10067000D7FD044608E032460021204600F0ECFD9C
:10068000002814BF041B3446AC6117E0294600F073
:1006900092F8002812D54FF0FF3076BD6869411CF2
:1006A00069612521315409E06969481C6861252286
:1006B0007254210002D0411C69613454002076BD7F
:1006C0002DE9F0410E460546716B7069B46A091A4E
:1006D000306A091AB069091A706A091AF069091AA8
:1006E00096F838000C1B410790460DD4002C0BDD0A
:1006F0002746B0682021A8470028B06057D0F06A8C
:10070000401C7F1EF062F4D1736942463146284690
:1007100000F0ACFC00284AD1376A002F0ADDB0682F
:100720003021A8470028B06041D0F06A401C7F1EED
:10073000F062F4D1B369F2683146284600F096FCC5
:10074000A8BB776A002F09DDB0683021A847B060E8
:1007500068B3F06A401C7F1EF062F5D1F068B169A1
:10076000F36942183146284600F080FCF8B9B76AB0
:10077000002F09DDB0683021A847B060B8B1F06A39
:10078000401C7F1EF062F5D196F8380041070BD56A
:10079000002C09DDB0682021A847B06038B1F06AAC
:1007A000401C641EF062F5D10020BDE8F0814FF0DE
:1007B000FF30BDE8F0812DE9F8470D46A3B02F6B5F
:1007C000002F8146904648BF6FF0004700F070FD53
:1007D000696B40180FF62C118128D1E90023CDE96F
:1007E000012328BF4FF0FF303ED20024002F2FDD21
:1007F000D8F8001001AA684600F0D2FC0646002E88
:1008000035D4D8F8000008B9761E30D4B7421FDBC3
:100810006869301881280AD30020686303AA294632
:100820004846FFF74DFF040012D40020686103A87A
:10083000D5F814A032466946504400F03FFDB2445A
:10084000C5F814A058F8040B002818BFBF1BCDD161
:100850002CB903AA29464846FFF732FF044614B9CB
:10086000002068616863204624B0BDE8F0874FF03F
:10087000FF34F8E72DE9FC4707468A463E69BAF19E
:100880006F0F08BF082405D04AF02001782914BF53
:100890000A2410243C25D7E90023BAF1640F18BFBD
:1008A000BAF1690F9046994606D100218B4203DACE
:1008B000D8F1000869EB49090020814508BF80454F
:1008C0001FD1386BE8B9082C4CD197F838000107D4
:1008D00048D530203B2586F83B0043E000280ED564
:1008E00097F8380000F01400102808D17A6B786966
:1008F000121A386A121A511A0029C8BF3962BDE8A3
:10090000F3878DF800A0404649462246E31700F0E1
:1009100029FD3032D0B26D1E3A28019504DB9DF8D6
:100920000000A0F151018A187255404649462246FE
:10093000E31700F017FD804689460020814508BF77
:10094000804503D0F86871198842DCD3082C09D19E
:1009500097F83800010705D5715D302902D06D1E6A
:1009600030207055C5F13C01B9617019F860386BE1
:100970008142B3DA411A39624FF6EF70398F014084
:100980003987BDE8F3872DE9D04306460F46144664
:100990004FF00008DFF8389412E0E00707D5424630
:1009A0004B463046394600F0F5FD06460F464046B8
:1009B000494642464B4600F0EDFD641080468946AC
:1009C000002CEAD130463946BDE8D0832DE9F34FFB
:1009D000054641F020048DB0D5E90089612C02AEB6
:1009E00009D0286B002848BF062003D408BF672C15
:1009F00001D101202863D5E9002358004015401C8F
:100A00000ED119030CD00320A8619DF8380061387D
:100A10001A2802D20FF2F46111E00FF2F4610EE035
:100A200058004015401C0FD119030DD10320A861B7
:100A30009DF8380061381A2814D30FF2DC61E86899
:100A4000032200F03BFCD3E1194621F00043B3F54B
:100A5000801F10460DD20027BB4208BFBA42019743
:100A600003D111E00FF2AC61E9E701AA00F064FEE6
:100A70000AE0DFF8607307EB1352DFF85C33019292
:100A80001940DFF858331943C5E90001612C0ED134
:100A9000E86830210170811CE9609DF838106129F7
:100AA0000CBF7821582141706869801C6861D5E9C4
:100AB00000AB2BF0004300202AF00002834204BF69
:100AC0008242002300F05A81612C40F0A980286BFB
:100AD00000284CBF2120401C00904046009F7F1CF6
:100AE00049460022002300F05FFED94601988DF8A8
:100AF000082038BF89F00049001F0190002FD04620
:100B00000DF1090040F3498140F2FF71DFF8D0B2E6
:100B10000C910646404649460022002300F05CFE48
:100B200080F03A814800400D00F11C0210D0002AEC
:100B30000EDD0C98824205DB09F0004040EA0B0113
:100B4000002013E0A448084040EA025140460DE06E
:100B500029F00043002028F00002834208BF8242AF
:100B60000FBF40461C22404600F04EFE804689469C
:100B700000F0E8FEFF1F002F044609DD00F000FF33
:100B800002460B464046494600F00CFF8046894627
:100B9000F01D072104E004F00F0200F8012D2411DC
:100BA000002C01DD491EF6D5491E5CBF002200F86D
:100BB000012DF9D5ECE00020194602AA0A4400E014
:100BC0005B1E12F80149491E8442F9D00F2804D156
:100BD0000DF10900425C521C4254002904D50198D1
:100BE000001D02AE5B1C0190591E12D49DF8380006
:100BF0007218147804F130085FFA88F4392CC4BFF5
:100C0000A0F13A04A044491E02F80189F1D58DF8FB
:100C10003800286B002840F1B080591E2963ACE0F1
:100C2000404649460022002300F0BEFD019938BF2E
:100C300089F0004947F2975041436A4A91FBF2F22A
:100C40000192D2F1070204DD40464946FFF79BFEC0
:100C50000AE0524200206449FFF795FE02460B4627
:100C60004046494600F010FF8046662C286BDFF8AE
:100C70007CB106BF019F0A3706273F18142FC8BF53
:100C8000142730208DF8080089460DF1090000E096
:100C90003046002F34DD06464046494601F018F83C
:100CA00001460A4606F1080304200A26B2FBF6F6BE
:100CB00006EB860EA2EB4E02303203F8012C0A221C
:100CC000B6FBF2F202EB820EA6EB4E063036401E69
:100CD00003F8026DE9D1083F002F03F10806D7DDC4
:100CE000084601F009F802460B464046494600F026
:100CF00059FE00225B4600F04DFC80468946CBE75A
:100D00000DF10901401A0DF1090604E00199491E8F
:100D1000401E0191761C31783029F7D0662C02D123
:100D20000199491C03E0652C0CBF012100212B6BAC
:100D3000CB189842B8BF431E002B1ED4834204DA5E
:100D4000F05C3528A8BF392000DA30201946721E21
:100D500002EB010800E05B1E18F80199491E81456D
:100D6000F9D0392802D1705C401C7054002904D598
:100D70000198401C16465B1C0190019800B200903F
:100D80001BB29DF838103246284600F035F82FE0A7
:100D9000C61D002F3FF7BEAE30460DF10901401AC7
:100DA000009903468842C8BF0B46002B0DF1090687
:100DB0003FF52FAF8342BFF6FEAE0DF10900C05CD8
:100DC00007287FF7F8AE0F20F6E60000CBCCCC0C5E
:100DD0000000244002FCFFFFFFFF0F800000E03F07
:100DE0000000F07FA08601000000F03F84D797410B
:100DF0000FB0BDE8F08F00002DE9F84783B006463C
:100E00008A461746984600F0CDF9B8F1000F406ABF
:100E1000356B90F8009002DC4FF00108BFA7BDF9D8
:100E200030404AF02000662808BF641C15D06728AF
:100E300040F0848014F1040FC0F28680AC4280F24E
:100E4000838096F83800641C010702D4A845B8BF17
:100E5000454620B22D1A48BF00250FFA84FAF068E3
:100E6000B169BAF1000F25DC4A1C30234354002D30
:100E700003DC96F83800010703D5F06800F802900B
:100E8000521C15EB0A0FB8BF6C4220B24419414204
:100E90004445B8BFA046B26171620FFA88F5F561AA
:100EA000F068B3692A463946184400F007FA641B13
:100EB000B462C4E022B29045084417DA424639468B
:100EC00000F0FCF9B0694044B061AAEB0801002DC4
:100ED000716203DC96F838100A0705D5F16801F84D
:100EE0000090F069401CF061B562A8E0394600F05E
:100EF000E5F9B069002D5044A8EB040803DC96F82E
:100F000038100A0703D5F16801F80090401CB06161
:100F10000FFA88F08542F068B369B8BFA8460FFAA7
:100F200088F207EB0A01184400F0C8F9B0690FFA1B
:100F300088F10844B061681A706280E0BAF1610F0C
:100F400014D14FF0700A16E0A84504DA96F838106C
:100F50000A0758BF45466D1E48BF0025BAF1670F06
:100F600014BF4FF0450A4FF0650A04E0BAF1410F93
:100F700008BF4FF0500AB169F368481CB061002DFA
:100F800017F8012B5A5403DC96F838100A071BD5C2
:100F9000F168431CB36101F80090002D14DDA8F145
:100FA00001080FFA88F08542F068B8BFA8460FFA2A
:100FB00088F23946184400F081F9B0690FFA88F1D7
:100FC00008446D1AB0617562F068B1690844002C7C
:100FD00080F800A003D42B214170811C03E02D2157
:100FE00041706442811C00206A460AE023460A24BC
:100FF00093FBF4F404EB8405A3EB450302F8013BF7
:10100000401C24B2002CF1DC012806DC4AF020024E
:10101000652A04BF302201F8012B48B9302001F8BD
:10102000010B07E0401E1DF80020303201F8012BB3
:101030000028F7DCF068B2691044091AF16196F8EB
:10104000380000F0140010280DD17169B069411802
:10105000706A4118F0694118B06A4118706B81429A
:10106000BCBF411A316204B0BDE8F087F8B505464F
:101070000E4617461C46002074B117F8011BB068D5
:10108000A847B06030B1F06A401CF0620020641ED6
:10109000F3D1F2BD4FF0FF30F2BD00007072696E07
:1010A00074665F733A20256E20646973616C6C6F9F
:1010B000776564007072696E74663A2062616420BC
:1010C000256E20617267756D656E74007072696E51
:1010D00074665F733A2062616420257320617267D1
:1010E000756D656E740000007072696E74665F7372
:1010F0003A2062616420256C7320617267756D65AA
:101100006E74000000000000000000006E616E00C0
:101110004E414E00696E6600494E46003000B1F502
:10112000807F02D34FF0FF3070470170012070477D
:101130000078401E8041C043C00F70471A48704776
:1011400030B45368D418042B09DA41B1057804F897
:10115000015B10F8015B15B15B1C491EF3E753609E
:1011600030BC704738B514461D4661B1FFF7E8FF43
:1011700061686A6B204690476FF00102811A02D0C5
:10118000491E03D005E06FF0010032BD4FF0FF3083
:1011900032BD0021616032BDDA6B1047024BE1E7DE
:1011A000014BF9E7014870474C0000201400002073
:1011B0000278C9B28A421AB11CBF10F8012FF9E7B0
:1011C00018BF002070478268521C8260426832B1AA
:1011D0000268531C036011704168491E41607047EA
:1011E00080B500B906A005490B681BB12222002179
:1011F000984701E000F08DFD222002BDC4070020C9
:10120000636F6E73747261696E742068616E646C72
:1012100065723A20626164206D6573736167650071
:1012200000F10103810704D010F8011B89B1810787
:10123000FAD10268B2F10131914311F0803F04BF4D
:1012400050F8042FF6E710F8011B11B110F8011B3C
:10125000FBE7C01A70470000C9B2830706D0521ED0
:1012600022D310F8013B9942F7D11FE0083A13D37B
:1012700002F1040241EA012141EA014150F8043B34
:10128000121F21BF4B40A3F1013C2CEA030C1CF0C0
:10129000803FF3D0C9B2001F083210F8013B521E44
:1012A00028BF91EA030FF8D818BF0120401E7047ED
:1012B00080B5FFF743FF006C02BD000062B38B07EF
:1012C00008D0521E11F8013B00F8013B00F02480C9
:1012D0008B07F6D1830740F0208000BF103A07D378
:1012E00030B4B1E83810103AA0E83810F9D230BC68
:1012F000530724BFB1E80810A0E8081044BF51F814
:10130000043B40F8043BD20724BF31F8022B20F8FD
:10131000022B44BF0B7803707047121F17D35B007A
:1013200009D151F8043B20F8023B1B0C121F20F896
:10133000023BF6D20BE051F8043B00F8013B1B0ADC
:1013400020F8023B1B0C121F00F8013BF3D238BF00
:10135000121D521E24BF11F8013B00F8013BF8D8C2
:1013600070470000B3BBD9B1B2F5803F7DD2022AED
:101370001ED98C46B1FBF2F102FB11C31B0443EAF8
:101380001043B3FBF2FC02FB1C3380B240EA034380
:10139000B3FBF2F002FB103240EA0C40002370472E
:1013A000022A05D98446B0FBF2F002FB10C2704756
:1013B0004AB105D100F0010249085FEA30007047E8
:1013C00000220023704700F0A7BC0B0002000021A0
:1013D00000207047904271EB030CF6D3B3F5803FC9
:1013E0002FD2F0B5B3FA83F7B1FA81F4A7F10F0E5B
:1013F0003D1B5340CEF1200602FA0EF2F34153405A
:10140000B5F10F0746D80F3C2C444140C4F12006EB
:10141000A040F1414140B1FBF3F603FB1611A2FBE2
:101420000645001BA94102D2761E8018594180EA68
:10143000010221FA0EF362FA0EF200215A40304600
:10144000F0BD30B4B1FBF3FC03FB1C11A2FB0C4557
:10145000001BA94103D2ACF1010C8018594130BCEA
:1014600002460B46604600217047B2F1807F65D38B
:10147000F0B5B2FA82F7B1FA81F4C7F10F063D1B5D
:1014800022FA06F307F1110EF24120355A40B5F168
:101490000F07B8D94140C4F12006A040F1414140B6
:1014A000B1FBF3FC03FB1C11A2FB0C45001BA94183
:1014B00003D2BCF1010C801859410F2F12D30F3FFA
:1014C000C90341EA5041B1FBF3F603FB1611A2FB3D
:1014D0000645D4EBC030A94102D2761E801859418E
:1014E00046EACC3C07B34140C7F12006B840F14181
:1014F0004140B1FBF3F603FB1611A2FB0645001BAE
:10150000A94102D2761E8018594180EA010221FACF
:101510000EF3C7F1200462FA0EF20CFA07F05A40FB
:101520002CFA04F13043F0BD80EA010221FA0EF3F7
:10153000002162FA0EF260465A40F0BD8C46B1FBC3
:10154000F2F102FB11C31B0243EA1063B3FBF2FC8E
:1015500002FB1C331B024CEA002043EA1063B3FB7E
:10156000F2FC02FB1C331B024CEA002043EA10632E
:10157000B3FBF2FC02FB1C331B024CEA002043EAE3
:101580001063B3FBF2FC02FB1C324CEA0020002388
:1015900070470000B0B581EA030C0CF0004C40F23B
:1015A000FF7515EA11541DBF15EA1357AC42AF423F
:1015B00039E0E41923EA455343F48013C90241F0AA
:1015C000004141EA505EC7021100A7FB0202002859
:1015D0004FF00000EEFB01204FF00001E3FB07217C
:1015E00018BF42F00102401800214941E3FB0E01FF
:1015F000A4F580640F0302D252004041494154F1E6
:1016000001046CDD470872F1004250F1000051EB1B
:101610000451A1F580115CBF41EA0C01B0BD4CEA58
:1016200005510020B0BD05EA1357AC4214BFAF42CC
:1016300041E050EA410E1CBF52EA430E02E061460F
:101640000020B0BD24423C441BD15FEA070EF6D017
:10165000090302BF01460020AEF1140EB1FA81F772
:10166000AEEB070401FA07FE0C37C7F1200100FAC0
:1016700007F7C8404EEA000E23EA455343F48013AF
:10168000A2E733F00043B3FA83F704BFB2FA82FE55
:1016900077440B3FE41BB7F1200E2FBF02FA0EF385
:1016A000BB40C7F1200E22FA0EFE38BF43EA0E03FC
:1016B000BA40641C82E750EA410E14BF52EA430E5E
:1016C0006FF000014FF4001717EB430F8ABF194664
:1016D00017EB410FB5E74CEA05510020B0BDD4F13E
:1016E0000104B4F120070FDAC4F12007520828BF23
:1016F00042F0010210FA07F501FA07F7E1BF2A43A9
:10170000E0403843E1400FE0352C98DCC7F120047D
:1017100052EA400220FA07F218BF42F0010231FA01
:1017200007F0A1400A43002172F1004250F100008D
:1017300051EB0C01B0BD000010B5144600F002F8EA
:10174000226010BDC1F30A5343B14A0012F5001FD5
:1017500028D2A3F2FE32A1EB0251704750EA410CAD
:1017600020D001F0004C31EA0C01B1FA81F204BF43
:10177000B0FA80F3D2180B3AB2F120032CBF00FA72
:1017800003F1914041EA0C013EBFC2F1200C20FA66
:101790000CF319439040524240F2FD33D21A01EB50
:1017A00003517047002270474FF4001C1CEB410F9F
:1017B00094BF1CEB430F09E041EA030C50EA4C0CC8
:1017C00052EA0C0C03D2994208BF9042704714BFF2
:1017D0008B428242704700004FF4001C1CEB410F0B
:1017E00094BF1CEB430F09E041EA030C50EA4C0C98
:1017F00052EA0C0C03D28B4208BF8242704714BFDE
:101800009942904270470000124254D440F2FF7C4B
:101810001CEA11530FD0634531D09B1863453CBF80
:1018200001EB0251704701F0004141EA0C510020E8
:10183000AFF30080704750EA410320D001F0004C24
:1018400091EA0C011CD0B1FA81F30B3B9A420DD9FD
:10185000D21A994051EA0C01C3F1200C20FA0CFC79
:1018600061449840531C40F2FF7CD7E7914041EA25
:101870000C01C2F1200C20FA0CF319439040704780
:10188000B0FA80F31533202BE0D3202AEED3203A90
:10189000203B9A4209D9D21A00FA03F141EA0C011D
:1018A0000020531C40F2FF7CB8E700FA02F141EA45
:1018B0000C0100207047524240F2FF7C1CEA115399
:1018C0000DD06345DBD0B2EB030C3CBFA1EB025162
:1018D00070470CF1010221EA035141F4801150EAF2
:1018E000410CCCD001F0004C352A27DC30B481EA21
:1018F0000C01B2F1200309DAC2F12003044601FA17
:1019000003F5D0402843D1409C400CE0C3F12002B5
:10191000450020FA03F418BF44F0010421FA03F053
:1019200091400C43002174F1004550F1000051EB4F
:101930000C01244230BC7FF47BAF7047614600202D
:1019400076E70000C1F30A5340F2FE329B1A14DD21
:10195000D3F120034FEAE17208DDC90241EA505198
:1019600041F00040D84080185040704703F2E13009
:1019700010B1D24382F00040704700207047000051
:10198000C11768B14840401AB0FA80F29040D21CAA
:10199000C907C2F5846241EA025202EBD021400538
:1019A0007047000070B44FF0004591EA030F40F11A
:1019B000B5816B40841A71EB030603D2001BB14161
:1019C000121973414FF4001C1CEB410F34BF7CEB28
:1019D000430442E00C0DA4EB1356352E4FDC45EAD0
:1019E000C323DB0A45EAC121C912B6F120050DDD8A
:1019F00063FA05F6EB4086EA0305124218BF45F08C
:101A00000105C01851F100010CD213E062FA06F58D
:101A1000F2405540F3415A40B340F3405A408018D9
:101A2000594107D349085FEA30005FEA350528BF0E
:101A300045F0010501F58011420875F1004250F1B1
:101A4000000041EB04514E0016F5001F70BC38BF7A
:101A500070470020090D090570471CEB410F10D29B
:101A600052EA43060BD0BCEB410F05D80C0DAB433B
:101A7000661E342EB6DD02E0AB438018594170BCBF
:101A8000704770BC70470000F0B540F2FF7581EA06
:101A9000030C0CF0004C15EA11541DBF15EA135746
:101AA000AC42AF42E5E0BC41C1F31301C3F3130301
:101AB000801A994143F4801304D2641E40004941C6
:101AC00080185941C90241EA5051B1FBF3F603FBBA
:101AD0001611A2FB0675D7EBC020A94102D2761ED3
:101AE00080185941C90241EA5051B1FBF3FE03FB92
:101AF0001E11A2FB0E75D7EBC020A94103D2AEF197
:101B0000010E80185941890241EA9051760546EA52
:101B10008E2EB1FBF3F603FB1611A2FB0675D7EB75
:101B20008020A94102D2761E80185941C90241EA9B
:101B300050514EEA060EB1FBF3F603FB1611A2FB61
:101B40000675D7EBC020A94102D2761E80185941F4
:101B5000C90241EA5051B1FBF3F703FB1711A2FB95
:101B60000735D3EBC020A94167F100070CBF004245
:101B700047F0010766F3D5274FEA1E31B80814F580
:101B8000806412DDBD0775F1004250EB0E5051EB41
:101B9000045111F5801F5CBF41EA0C01F0BD4CF00F
:101BA0007F6141F0E0410020F0BDBD076D0840EAD3
:101BB0000E5041F48011D4F10104B4F120060ADA88
:101BC000C4F120060200E04001FA06F3E1401843A8
:101BD000B24015430EE0342C13DCC6F1200445EA74
:101BE00040056D0820FA06F2154321FA06F0A140DF
:101BF0000D43002175F1004250F1000051EB0C0142
:101C0000F0BD00205FEA0C01F0BDCFB992185B4136
:101C1000B3FA83F704BFB2FA82F6BF190B3FB7F1EC
:101C200020062FBF02FA06F3BB40C7F1200622FAB6
:101C300006F638BF3343BA401CB1E419641E33E7DB
:101C40007F4231F00041B1FA81F404BFB0FA80F66E
:101C5000A4190B3CB4F120062FBF00FA06F1A140F5
:101C6000C4F1200620FA06F638BF3143A0403C1BE1
:101C70001AE7AC421ABF05EA1357AF4212E050EA26
:101C800041061CBF52EA4306BFE750EA410730460F
:101C900061461CBF41EA0551F0BD52EA430C08BF42
:101CA000C143F0BD00204FF4001616EB410F98BF62
:101CB00016EB430F08BF16EB410F24BFC14305E0ED
:101CC00016EB430F0CBF61464CEA0551F0BD000016
:101CD000400D491840EA81200CD2490DA1F58061E0
:101CE000491C40F0004005DBD1F11F0154BFC84042
:101CF000C017704700207047014648B1B0FA80F124
:101D00008840C91CC1F58461090501EBD02140055B
:101D10007047012000F0B6B870470000841A71EBDC
:101D2000030604D26E40001BB141121973414FF4F7
:101D3000001C1CEB410F34BF7CEB430682E00C0D12
:101D4000A4EB1356362E7BDC012E45EAC32341DC7F
:101D500043EA525312BFD20292025B08240545EABD
:101D6000C12141EA5051D2EBC020994125D407D17D
:101D7000B0FA80F610FA06F162D00020203608E0B2
:101D8000B1FA81F6B140C6F1200220FA02F2114305
:101D9000B0404FEAF474B4EB465434F001064FEA15
:101DA00074040AD8D6F50016760D04F00044F0400D
:101DB00061FA06F25040F1404840C00A40EA415002
:101DC00021F0004128BF5FEA500550F1000044EBCC
:101DD000D12135E0DB0A45EAC121C90AB6F1200567
:101DE0000EDD42EA0242120CC5F1200603FA06F6A5
:101DF000EB4042EA06056D42984161F100010DE0B9
:101E000062FA06F5F240554063FA06FC82EA0C02DB
:101E1000F3405A406D42904161EB030111F4801F81
:101E200005D1641E620502D06D004041494121F494
:101E30008011430875F1004350F1000041EB04515B
:101E400070BC70471CEB410F15D223F0004352EADF
:101E500043060BD04FEA4C0CBCEB410F04D80C0DE1
:101E6000661E342EB7DDEBE7801A994150EA410631
:101E700008BF0021E4E708BF1CEB430F28BF6FF049
:101E80000001DDE780B5AFF30080024A11001820A1
:101E9000ABBEFBE726000200F8B5040000250026D3
:101EA000002C01D10120CAE094F83C00002805D1A3
:101EB000002084F83D00200000F004FE022084F899
:101EC0003C002068006830F002002168086020684B
:101ED000006850F001002168086000F01BFF070057
:101EE00020684068C0070CD400F014FFC01B0B280A
:101EF000F6D3032084F83C00002084F83D00032042
:101F00009DE020684068C00740F18C80A0690128EE
:101F100006D12068006850F080002168086005E064
:101F20002068006830F0800021680860E0690128BE
:101F300006D12068006850F040002168086005E084
:101F40002068006830F0400021680860206A01289D
:101F500006D12068006850F020002168086005E084
:101F60002068006830F0200021680860606A01285D
:101F700006D12068006850F010002168086005E074
:101F80002068006830F0100021680860A06A01280D
:101F900006D12068006850F008002168086005E05C
:101FA0002068006830F0080021680860E06A0128B5
:101FB00006D12068006850F004002168086005E040
:101FC0002068006830F0040021680860A168E068BB
:101FD000014320690143606901436068401E014379
:101FE0002068C161206800684008400021680860DE
:101FF00000F090FE070020684068C0070CD500F094
:1020000089FEC01B0B28F6D3032084F83C00002077
:1020100084F83D00032012E020684068C00701D426
:1020200001200500012D06D100202064012084F844
:102030003C00002003E0042084F83C000120F2BDB5
:1020400070B40200002501204B6910FA03F3DFF899
:102050007443D4F8000250F00100C4F80002D4F830
:10206000000230F47C50C4F80002D4F800024E6A3A
:1020700050EA0620C4F80002D4F81C029843C4F8C1
:102080001C02C869002816D1D4F80C029843C4F881
:102090000C02486904EBC000CD684E68C6EA0545ED
:1020A000C0F84052486904EBC0008D680E68C6EA6B
:1020B0000545C0F84452C869012816D1D4F80C026D
:1020C0001843C4F80C02486904EBC0000D684E6860
:1020D000C6EA0545C0F84052486904EBC0008D6867
:1020E000CE68C6EA0545C0F844528869002805D183
:1020F000D4F804029843C4F8040204E0D4F80402BB
:102100001843C4F804020869002804D1D4F8140262
:102110009843C4F814020869012804D1D4F81402C1
:102120001843C4F81402086A012804D1D4F81C0228
:102130001843C4F81C02D4F8000240084000C4F858
:102140000002002070BC70472DE9F04106000D0030
:1021500004215FF0000830688068400108D43068CE
:102160008068000104D430688068C00040F1248198
:1021700096F83D00012801D1022021E1012086F8D6
:102180003D0096F83C00222804D0322806D0622870
:1021900008D00BE0422086F83C000AE0522086F886
:1021A0003C0006E0722086F83C0002E0122086F82F
:1021B0003C0030688068400101D5002406E03068AA
:1021C0008068000101D5012400E00224306821016B
:1021D0000844D0F8800110F0010031682201114458
:1021E000C1F88001306B8068002811D1306821016E
:1021F0000844D0F88001316B0968326BD26852EA2A
:1022000041521043316822011144C1F8800113E0AA
:10221000306821010844D0F88011306B4068326B7F
:10222000926852EAC002306BC068024311433068C2
:1022300022011044C0F88011306B007C10F00F00B8
:10224000316B0861306821010844D0F8840100092D
:102250000001316822011144C1F884013068210174
:102260000844D0F88411306B0069014330682201C2
:102270001044C0F88411306BC07D316B897D090436
:1022800051EA0061306B407D51EA0021306B007DE6
:102290000143306822011044C0F88811306BC07EC1
:1022A000316B897E090451EA0061306B407E51EA4E
:1022B0000021306B007E0143306822011044C0F8D9
:1022C0008C11306821010844D0F8800150F00100E1
:1022D000316822011144C1F8800100F01BFD0700A4
:1022E000002C0CD130688168DFF820050140DFF850
:1022F0001C05814201D101201CE000201AE0012CC4
:102300000CD130688168DFF808050140DFF800056E
:10231000814201D101200DE000200BE0306881688E
:10232000DFF8F0040140DFF8EC04814201D1012024
:1023300000E00020002822D115F1010FD0D0002D9F
:1023400004D000F0E7FCC01B8542C9D2032086F808
:102350003C00002C03D18020316888600AE0012C09
:1023600004D14FF400403168886003E05FF400005E
:1023700031688860002086F83D00032020E096F850
:102380003C00422804D0522806D0722808D00BE026
:10239000222086F83C000AE0322086F83C0006E065
:1023A000622086F83C0002E0012086F83C00002014
:1023B00086F83D00002003E0042086F83C00012060
:1023C000BDE8F0810064004002000800C0B20028AF
:1023D00011D192F83C0022280BD092F83C00422800
:1023E00007D092F83C00622803D092F83C00722893
:1023F00001D1022072E00800C0B2012811D192F888
:102400003C0032280BD092F83C00522807D092F8BA
:102410003C00622803D092F83C00722801D10220CF
:102420005CE092F83D00012801D1022056E0012035
:1024300082F83D000800C0B2002818D192F83C0094
:10244000122804D0322806D0522808D00BE04220AF
:1024500082F83C0023E0622082F83C001FE07220FA
:1024600082F83C001BE0222082F83C0017E092F842
:102470003C00122804D0222806D0422808D00BE0C5
:10248000522082F83C000AE0622082F83C0006E01C
:10249000722082F83C0002E0322082F83C000020EA
:1024A00010641068406940F40F4050F00100136858
:1024B0005861002082F83D000800C0B2002806D113
:1024C0001068406950F00A001368586105E0106810
:1024D000406950F0500013685861002070472DE9A2
:1024E000F0478046002200235FF000095FF0000AF9
:1024F000D8F80000C068000910F00100D8F80010FA
:102500004969C1F3C00111F00101002807D0002979
:1025100005D05AF4007A1022D8F80030DA60D8F8E2
:1025200000201669360916F00106D8F80020526915
:10253000C2F3801717F00107002E07D0002F05D037
:102540005AF4806A1020D8F800100861D8F800000A
:102550004069C00751D5D8F800008168AB480140F8
:10256000AA48814201D1012600E00026D8F80000E7
:102570008168A7480140A648814201D1012700E0B7
:102580000027D8F800008168A2480140A148814294
:1025900002D15FF0010901E05FF0000957EA06008F
:1025A00059EA0000002828D0D8F8000080684008C8
:1025B00010F001000600D8F800008068400A10F012
:1025C00001000700D8F800008068400C10F00100FE
:1025D000814657EA060059EA0000002803D0404629
:1025E00000F01EF901E05AF4006AD8F80000816892
:1025F00089480143D8F800008160D8F80000C46819
:1026000014F00304D8F800004069C0F3400515F049
:102610000105002C05D0002D03D00021404600F01C
:102620002EF9D8F80000066916F00306D8F8000065
:102630004069C0F3001717F00107002E05D0002FE6
:1026400003D00121404600F01AF9D8F840005AEAB8
:102650000000C8F84000D8F80000806910F00100C0
:10266000D8F800104969C1F3002111F00101D8F830
:1026700000205269C2F3C03212F00102002809D0D2
:10268000002907D0002A05D0D8F8403053F00103C4
:10269000C8F84030D8F800309B695B0813F001039C
:1026A000D8F800406469C4F3402414F00104D8F859
:1026B00000506D69C5F3C03515F00105002B09D038
:1026C000002C07D0002D05D0D8F8400050F00200B3
:1026D000C8F84000D8F800008269920812F00102A0
:1026E000D8F800004069C0F3802010F00100D8F84D
:1026F00000104969C1F3C03111F00101002A09D06D
:10270000002807D0002905D0D8F8403053F0040342
:10271000C8F84030D8F800309B6913F0700F01D131
:10272000012400E00024D8F800205269C2F3C0253B
:1027300015F00105D8F800205269C2F3C03616F032
:102740000106002C49D1002D47D0002E45D0D8F8E5
:102750000000806910F070000400200010280AD0EA
:1027600020280FD0302814D0402819D050281ED04F
:10277000602823D029E0D8F8400050F00800C8F8BD
:10278000400022E0D8F8400050F01000C8F84000A7
:102790001BE0D8F8400050F02000C8F8400014E0DA
:1027A000D8F8400050F04000C8F840000DE0D8F8DC
:1027B000400050F08000C8F8400006E0D8F8400023
:1027C00050F48070C8F84000FFE7D8F80000806936
:1027D00030F07000D8F800108861D8F84000002868
:1027E00011D00420D8F800104860012088F83C007F
:1027F000D8F80000416909480140D8F8000041615B
:10280000404600F05AFABDE8F087000003000004DB
:10281000000300080000031019050100A470FFFF69
:1028200010B50400206840694008400021684861F4
:1028300094F83C00122805D12068406930F40F401C
:102840002168486194F83C00422804D0522806D000
:10285000722808D00BE0222084F83C000AE03220E5
:1028600084F83C0006E0622084F83C0002E001208D
:1028700084F83C00200000F053FA002010BDF8B5A9
:1028800004000D00002100222800C0B2002801D160
:10289000666B00E0A66B20682A00D2B212011044D9
:1028A000D0F8B00110F00400B060B068002809D181
:1028B00020682A00D2B212011044D0F8B001400DB5
:1028C000306008E020682A00D2B212011044D0F82B
:1028D000B001C008706020682A00D2B21201104412
:1028E000D0F8B00110F00200F06020682A00D2B2E7
:1028F00012011044D0F8B40110F00F00306128002C
:10290000C0B2306220682A00D2B212011044D0F85E
:10291000B401C0F30720F06120682A00D2B212018E
:102920001044D0F8B801307520682A00D2B21201E4
:102930001044D0F8B801000A707520682A00D2B29D
:1029400012011044D0F8B801000CB07520682A00BC
:10295000D2B212011044D0F8B801000EF075206810
:102960002A00D2B212011044D0F8BC01307620689F
:102970002A00D2B212011044D0F8BC01000A7076CD
:1029800020682A00D2B212011044D0F8BC01000C19
:10299000B07620682A00D2B212011044D0F8BC01EF
:1029A000000EF0762800C0B2002809D1202022684D
:1029B000D0602068406930F00A002268506108E069
:1029C0002020226810612068406930F050002268A1
:1029D000506194F83C70222F01D0322F05D120682D
:1029E000406930F40F40216848612800C0B20028D7
:1029F00018D194F83C00422804D0622806D07228EE
:102A000008D00BE0122084F83C0023E0322084F848
:102A10003C001FE0522084F83C001BE0012084F8B9
:102A20003C0017E094F83C00522804D0622806D0FD
:102A3000722808D00BE0122084F83C000AE0222023
:102A400084F83C0006E0422084F83C0002E00120CB
:102A500084F83C00200000F01CF90020F2BD0000CA
:102A600080B5A048A049086003209F4948605FF0F6
:102A700080409D49886000209B49C8605FF4002029
:102A8000994908615FF440109749486100209649D0
:102A9000886101209449C8610020934908620020A0
:102AA0009149486200209049886200208E49C8629E
:102AB0008D48FFF7F1F9002803D05B218B4800F027
:102AC00091FA01BD10B586B004002068854988429E
:102AD00034D1002000908648006850F0007084498E
:102AE00008608348006810F00070009000984FF470
:102AF000C050019002200290002003900320049017
:102B00000920059001A97B4800F06EFA00220021FF
:102B1000142000F03BFC142000F04DFC00220021AA
:102B2000152000F033FC152000F045FC00220021A8
:102B3000162000F02BFC162000F03DFC06B010BD66
:102B400080B56D48684908636C486749486300F080
:102B500012F800216448FFF737FC002807D06248CC
:102B60000068406950F00A005F490968486164489C
:102B700000F09EFC01BD80B5002062494861002044
:102B80006049886101205F49C86100205D49086093
:102B900000205C49486000205A498860002059495B
:102BA000C8600020574908610120564908620E207C
:102BB0005449486253494C48FFF742FA01BD70B589
:102BC00004000D0016004848006B046000204649D0
:102BD000096BC86000204449096B88604248006B5B
:102BE00006610020082806DA295C3F4A126B02447D
:102BF0001175401CF6E764213B48FFF7A5FA002851
:102C000001D0002000E0012070BD38B504000D00A7
:102C100040F60100844206D3E22234493A4800F0EB
:102C20006BFCAFF3008039480068322806DBE322F2
:102C30002E49354800F060FCAFF30080344833493A
:102C4000096840F8315032483049096800EBC1004A
:102C500044602E480068401C2C490860002032BDAA
:102C600070B504000D0000262848006886420EDA80
:102C7000274800EBC6004068844206D1280024495A
:102C800051F836108847012002E0761CECE700205E
:102C900070BD10B50400616B606B0068FFF7E0FF6A
:102CA00000212000FFF790FB002805D02068406934
:102CB00050F00A002168486110BD10B504000020E2
:102CC00009490968486000212000FFF77DFB0028C2
:102CD00005D02068406950F00A002168486110BDA5
:102CE000000000000064004038060020486500082D
:102CF0004038024000000240740700201007002006
:102D0000E0670008E80600204068000890070020FF
:102D1000F002002001480068704700BFC007002093
:102D20007047000080B500F0F9FB00F031F800F0CA
:102D300015FC00F0DFFD00F071FBFFF791FE00F0E5
:102D4000F3FD00F0B9FE00F073FFFFF7F9FE0FF29C
:102D5000051140F24510FFF758FF0FF21D114FF417
:102D6000A270FFF752FF96229249934801F0E8F8CB
:102D7000924801F05CFB012091490860914800F005
:102D800097FB00F09EF800F033FD00F017FDF8E728
:102D900080B592B0002000908B48006850F08050C1
:102DA000894908608848006810F0805000900098B9
:102DB000002000908548006850F4804083490860F6
:102DC0008248006810F4804000900098022006902D
:102DD0000120099010200A9002200C9000200D90F4
:102DE00008200E90A8200F9002201090042011902F
:102DF00006A801F0A5FD002803D0B921744800F011
:102E0000F1F80F20019002200290002003904FF46F
:102E1000A05004904FF480500590052101A801F0C6
:102E200057FF002803D0C721694800F0DBF801F004
:102E3000F4FF4FF47A71B0FBF1F000F0C3FA042014
:102E400000F0C6FA002200215FF0FF3000F09EFA89
:102E500013B000BD3EB504000025082D06DA04EBD2
:102E60000500007D694648556D1CF6E769465948DE
:102E700000F01EFB37BD00007CB504000025062DC8
:102E800006DA04EB0500007D694648556D1CF6E73F
:102E90009DF8043080219DF8050001FB03039DF897
:102EA000022080219DF8030001FB02029DF8001022
:102EB00080269DF8010006FB0101474800F0F8FA62
:102EC00073BD00B585B04548006800284ED06846FF
:102ED00000210022002380E80E000021962915DA47
:102EE000009A344850F8210082180092491C019A37
:102EF000304850F8210082180192491C029A2D484E
:102F000050F8210082180292491CE7E752208DF800
:102F10000C000020032822DA694651F820103222E2
:102F2000B1FBF2F16A4642F82010694651F82010D0
:102F300009096A4642F82010694611F8201011F07C
:102F40007F0103AA02EB40029170694651F82010FC
:102F5000C90903AA02EB40025170401CDAE70721BD
:102F600003A801F073FC00201C49086005B000BDF7
:102F70001348006801281BD119480068401C1849F3
:102F80000860322016490968154A126892FBF0F26F
:102F900000FB1210002802D10120104908601048DF
:102FA00000684FF6FA71884202DB00200C49086085
:102FB0007047000098000020F0050020BC060020AB
:102FC0009C07002010680008403802400070004054
:102FD000D8650008486800081C680008A0070020A1
:102FE000A4070020FEE70000F8B400230024002519
:102FF0000026102E80F004810122B24013000A68DE
:103000001A4014009C4240F0F9804A68022A02D01B
:103010004A68122A1ED13200D20800EB8202176AD7
:103020005FF00F0C16F00702D2B292001CFA02FCFD
:1030300037EA0C07D1F810C016F00702D2B292009E
:103040001CFA02FC5CEA07073D003200D20800EBE4
:103050008202156207685FF0030C3200D2B25200A0
:103060001CFA02FC37EA0C0791F804C01CF0030CB0
:103070003200D2B252001CFA02FC5CEA0707076079
:103080004A68012A08D04A68022A05D04A68112AEB
:1030900002D04A68122A24D185685FF0030C3200FE
:1030A000D2B252001CFA02FC35EA0C05D1F80CC071
:1030B0003200D2B252001CFA02FC5CEA05058560BF
:1030C00042685FF0010C1CFA06FC32EA0C02D1F8EF
:1030D00004C0CCF3001C1CFA06FC5CEA02021700D8
:1030E0004760C5685FF0030C3200D2B252001CFA90
:1030F00002FC35EA0C05D1F808C03200D2B2520009
:103100001CFA02FC5CEA0505C5604A68D20075D568
:1031100000220092504A126852F480424E4F3A60A8
:103120004D4A126812F480420092009A4B4A3700CE
:10313000BF0852F827705FF00F0C16F00302D2B2EE
:1031400092001CFA02FC37EA0C07454A904201D172
:10315000002523E0434A904201D101251EE0424A66
:10316000904201D1022519E0404A904201D1032545
:1031700014E03F4A904201D104250FE03D4A9042BD
:1031800001D105250AE03C4A904201D1062505E01F
:103190003A4A904201D1072500E00825EDB216F029
:1031A0000302D2B2920095402F432C4A3500AD085D
:1031B00042F82570324A1268A2434D68ED0300D5EB
:1031C00022432F4D2A602F4D2D68A5434F68BF0322
:1031D00000D525432B4A15602B4A1268A2434F683D
:1031E000FF0200D52243284D2A60284D2D68A543B3
:1031F0004F68BF0200D52543244A1560761CF8E6C7
:10320000F1BC7047020010690B009BB2184201D05C
:10321000012000E00020C0B270471300DBB2002B99
:1032200003D00B009BB2836103E00B009BB21B0435
:103230008361704710B5040015480068210089B209
:10324000084207D0200080B211490860200080B2F7
:1032500000F003FB10BD0000443802400838014074
:10326000000002400004024000080240000C02403E
:10327000001002400014024000180240001C0240EE
:10328000003C0140043C0140083C01400C3C014032
:10329000143C014010F00703DFF858110A684FF69C
:1032A000FF010A40DFF8501151EA03210A43DFF819
:1032B00044110A607047DFF83C010068C0F3022047
:1032C0007047010049B200290AD4012210F01F0101
:1032D0008A40DFF8281103005BB25B0941F8232024
:1032E000704710B4020052B2002A05D40A01444BC0
:1032F000040064B21A5508E00A01424B040064B2AB
:1033000014F00F04234403F8042C10BC704770B46D
:10331000030013F00704D4F10700052801D30420AB
:1033200001E0D4F10700251D072D01D2002500E0A2
:10333000E51E012616FA00F0401E0140A9400120BA
:1033400010FA05F56D1E2A401143080070BC704745
:1033500010B50400601EB0F1807F01D301200EE0A3
:10336000601E294908600F215FF0FF30FFF7B9FFA9
:10337000002026490860072025490860002010BD6C
:1033800010B504002000FFF785FF10BD2DE9F041C6
:1033900004000D0016000027FFF78DFF8046320065
:1033A00029004046FFF7B3FF0100200040B2FFF7BD
:1033B00098FFBDE8F08110B50400200040B2FFF78F
:1033C00080FF10BD10B504002000FFF7C1FF10BD45
:1033D000042806D10E49096851F004010C4A116015
:1033E00005E00B49096831F00401094A1160704792
:1033F000000000000CED00E00000FA0500E100E034
:1034000000E400E018ED00E014E000E018E000E067
:1034100010E000E080B5FFF7ABFD01BD80B530489E
:10342000304908605FF4E1302E49486000202D49A2
:10343000886000202B49C86000202A4908610C20C0
:103440002849486100202749886100202549C86132
:10345000244801F051FD002803D043212248FFF702
:10346000C1FD01BD10B586B0040020681C4988422A
:103470001CD1002000901D48006850F010001B492E
:1034800008601A48006810F01000009000984FF48F
:10349000C06001900220029001200390032004905C
:1034A0000720059001A91248FFF79EFD06B010BD48
:1034B0000EB478B5040005AE3300220065210D4836
:1034C00001F080FF05004FF47A732800020092B2E9
:1034D0000849044801F04BFD71BC5DF810FB000089
:1034E000001001407C060020686600084438024055
:1034F000000002408004002000B583B000910192DA
:1035000002906A4604491820ABBE002801D1FEF79C
:1035100000FC03B000BD00BF1010020080B50E48D3
:10352000006850F400700C4908600B48006850F4C3
:103530008060094908600848006850F480700649B6
:1035400008600320FFF71CFF002001F059FF01F085
:103550006BFF002002BD0000003C024080B586B039
:1035600000200590DFF86003006850F08000DFF86D
:1035700058130860DFF85003006810F080000590D1
:10358000059800200590D048006850F00400CE490E
:103590000860CD48006810F00400059005980020F0
:1035A0000590C948006850F00100C7490860C64846
:1035B000006810F001000590059800200590C248B1
:1035C000006850F00200C0490860BF48006810F071
:1035D00002000590059800200590BB48006850F057
:1035E0002000B9490860B848006810F02000059034
:1035F000059800200590B448006850F01000B249CA
:103600000860B148006810F010000590059800208F
:103610000590AD48006850F00800AB490860AA4822
:10362000006810F008000590059800200590A64855
:10363000006850F04000A4490860A348006810F0FA
:10364000400005900598002240F201219F48FFF7B5
:10365000E4FD00224FF400419D48FFF7DEFD40F2FB
:10366000C1600090002001900020029069469948B6
:10367000FFF7BAFC4FF49F7000909748019000202C
:10368000029069469348FFF7AFFC40F2012000909A
:1036900001200190002002900020039069468B4891
:1036A000FFF7A2FC4FF400400090012001900020A1
:1036B00002900020039069468548FFF795FC4FF47F
:1036C0000060009085480190002002906946814882
:1036D000FFF78AFC4FF480700090002001900020DA
:1036E000029069467948FFF77FFC002200210720FD
:1036F000FFF74CFE0720FFF75EFE002200210820A6
:10370000FFF744FE0820FFF756FE002200210920A3
:10371000FFF73CFE0920FFF74EFE002200210A20A1
:10372000FFF734FE0A20FFF746FE00220021172093
:10373000FFF72CFE1720FFF73EFE00220021282075
:10374000FFF724FE2820FFF736FE07B000BD2DE965
:10375000F04104000D0016001F00DDF818802078ED
:10376000002813D1310089B22800FFF74BFD012852
:103770000CD10322390040F24510FFF720FA032153
:10378000380001F063F80120207015E0207801284E
:1037900012D1310089B22800FFF734FD00280BD187
:1037A0000322414640F24510FFF709FA0321404643
:1037B00001F04CF800202070BDE8F08180B537A002
:1037C000009037A3202243494548FFF7C0FF35A0AA
:1037D000009035A310223F494248FFF7B8FF33A0BD
:1037E000009033A301223B493F48FFF7B0FF01BDE2
:1037F00080B53E480068012807D02DD3032814D097
:103800000BD3052821D018D326E0012129A001F0EF
:103810001DF80020354908601EE0012126A001F0B6
:1038200015F800203149086016E0012123A001F0BD
:103830000DF800202D4908600EE0012120A001F0C4
:1038400005F800202949086006E001211DA000F0CC
:10385000FDFF00202549086001BD010089B2022951
:1038600003D10121214A116012E0010089B204292B
:1038700003D102211D4A11600AE0010089B2082922
:1038800003D10321194A116002E0010089B2102915
:10389000010089B2164A1160704700006C72620024
:1038A0006C726500727262007272650074726200FE
:1038B0007472650030000000310000003400000028
:1038C00033000000320000003038024000040240A3
:1038D00000000240000802400000211000003110EA
:1038E00094000020950000209600002098070020FA
:1038F000143C014080B5002000900A48006850F454
:103900008000084908600748006810F480000090B3
:103910000098002200213820FFF738FD3820FFF7FB
:103920004AFD01BD30380240F8B55A485A4908608E
:103930005FF4803058494860002057498860012072
:1039400055490861012054498861002052490862A4
:1039500000205149C86251484F49886200204E49B1
:10396000C86003204C49C86101204B49086301200D
:1039700049494861484800F0BBF9002803D04A2172
:103980004748FFF72FFB0520009001200190002001
:1039900002906946404800F068FB002803D054219B
:1039A0003F48FFF71FFB0620009002200190694668
:1039B000394800F05AFB002803D05D213848FFF752
:1039C00011FB04200090032001906946324800F06A
:1039D0004CFB002803D066213148FFF703FB05B0FC
:1039E00000BD10B586B0040020682A4988424FD136
:1039F000002000902B48006850F48070294908602E
:103A00002848006810F480700090009870200190A1
:103A1000032002900020039001A92348FFF7E4FA55
:103A2000224823490860002021494860002020499D
:103A3000886000201E49C8604FF480601C490861FE
:103A40004FF480501A4948614FF48040184988610A
:103A50004FF480701649C8615FF400301449086261
:103A6000002013494862124801F02EFD002803D0BF
:103A70008F210B48FFF7B6FA0D48A0630C4884630A
:103A8000002200211220FFF781FC1220FFF793FC97
:103A900006B010BD00200140F00500200100000F1D
:103AA00000650008443802400000024010640240F3
:103AB000E80400207047000000B587B05FF02040A8
:103AC0005249086052485149486006204F49886071
:103AD00000204E49C86000204C49086110204B4925
:103AE000486100204949886100204849C861002098
:103AF000464908620020454948624FF480504349D6
:103B0000886200204149C8620020404908630020C3
:103B10003E49486300203D49886300203B49486492
:103B20000F2000900F200190FF2002900F200390A3
:103B30001020049011200590002006900022694674
:103B4000324801F005FF002803D056213148FFF725
:103B500049FA07B000BD80B586B02F48006800283C
:103B60004CD101202C490860002005902B480068AA
:103B700050F00100294908602848006810F0010051
:103B8000059005984FF4805000900220019000208D
:103B90000290032003900C20049069462048FFF710
:103BA00023FA4FF6807000900220019000200290CE
:103BB000032003900C20049069461A48FFF714FA7A
:103BC0004CF23370009002200190002002900320FC
:103BD00003900C20049069461348FFF705FA4FF450
:103BE000805000900220019000200290032003905A
:103BF0000C20049069460D48FFF7F6F907B000BDA8
:103C000010B50400FFF7A7FF10BD0000A0050020BD
:103C1000040100A090650008940700203838024095
:103C20000014024000100240000C02400018024044
:103C300080B52A482A4908604FF4827028494860B4
:103C400000202749886000202549C86000202449B9
:103C500008610020224948614FF4007020498861C2
:103C600028201F49C86100201D49086200201C4906
:103C7000486200201A4988620A201949C862184817
:103C800001F094FE002803D045211648FFF7AAF959
:103C900001BD10B586B004002068104988421BD1D0
:103CA000002000901048006850F400400E49086061
:103CB0000D48006810F400400090009838200190F2
:103CC000022002900020039003200490062005901B
:103CD00001A90648FFF788F906B010BD003C004076
:103CE00048050020206600084038024000040240D9
:103CF00038B504000025002C01D101202AE0A06A7B
:103D0000DFF83C168842206C002807D10020606450
:103D1000002084F83C002000FFF763FE206CC00602
:103D200011D4206C30F4885050F002002064200040
:103D300000F05AFA00206064206C30F0020050F06D
:103D40000100206401E001200500002084F83C000F
:103D50002800C0B232BD2DE9F0418046002000218C
:103D6000D8F800201468640814F00104D8F8002082
:103D700055686D0915F00105002C40D0002D3ED08E
:103D8000D8F84000C00605D4D8F8400050F40070C0
:103D9000C8F84000D8F80000806810F0405F26D1D5
:103DA000D8F81800002822D1D8F80000C06A10F412
:103DB000700F04D0D8F800008068400517D4D8F8F8
:103DC0000000406830F02000D8F800104860D8F8B3
:103DD000400030F48070C8F84000D8F84000C004BB
:103DE00005D4D8F8400050F00100C8F84000404623
:103DF000FFF760FE7FF01200D8F800100860D8F8D6
:103E000000000668B60816F00106D8F800004768FA
:103E1000FF0917F00107002E4BD0002F49D0D8F82A
:103E20004000C00605D4D8F8400050F40050C8F84F
:103E30004000D8F80000806810F4401F31D1D8F855
:103E40000000806B10F4401F04D0D8F80000806898
:103E5000400526D4D8F800004068400521D4D8F8A1
:103E60000000806810F0405F1BD1D8F818000028CF
:103E700017D1D8F80000406830F08000D8F8001062
:103E80004860D8F8400030F48050C8F84000D8F8B6
:103E90004000C00505D4D8F8400050F00100C8F833
:103EA0004000404602F0D8F87FF00C00D8F800102F
:103EB0000860D8F80000046814F00104D8F8000085
:103EC0004568AD0915F00105002C14D0002D12D065
:103ED000D8F800000068C0070DD5D8F8400050F4AD
:103EE0008030C8F84000404602F0B7F87FF001008B
:103EF000D8F800100860D8F800000668760916F0B7
:103F00000106D8F800004768BF0E17F00107002E21
:103F100014D0002F12D0D8F8440050F00200C8F896
:103F200044007FF02000D8F800100860404602F0FE
:103F300095F87FF02000D8F800100860BDE8F08107
:103F4000F8B505000E0017000020009095F83C0021
:103F5000012801D1022087E0012085F83C00286873
:103F60008068C00716D42868806850F0010029686E
:103F70008860DFF8D0030068DFF8CC13B0FBF1F104
:103F80000320414300910098002803D00098401E70
:103F90000090F8E728688068C00764D5296CDFF8CE
:103FA000AC03014051F480712964286840684005E1
:103FB00005D5286C30F4005050F480502864286CEB
:103FC000C00404D5686C30F00600686401E000208D
:103FD0006864002085F83C00DFF8740304000FF2E9
:103FE0007930A96BC8630FF2DD30A96B08640FF25A
:103FF000E530A96BC8647FF0220029680860286852
:10400000406850F08060296848602868806850F4F3
:104010008070296888603B003200286810F14C01EC
:10402000A86B01F0C2FA606810F01F0F0BD128686E
:10403000806810F0405F16D12868806850F080409A
:10404000296888600FE02868DFF8081388420AD1E1
:104050002868806810F0405F05D12868806850F0BB
:104060008040296888600020F2BD38B4020000203A
:10407000009092F83C00012801D10220B2E001201A
:1040800082F83C0008680A2818D31068C36807241F
:1040900008680A38032510FB05F08440A343106824
:1040A000C3601068C3688C6808680A38032510FB71
:1040B00005F0844023431068C36013E0106803696F
:1040C00007240D6803204543AC40A34310680361F7
:1040D000106803698C680D6803204543AC40234396
:1040E000106803614868072818D21068436B1F24C2
:1040F0004868401E052510FB05F08440A343106866
:1041000043631068436B0C884868401E052510FB0C
:1041100005F0844023431068436333E048680D286A
:1041200018D21068036B1F244868C01F052510FBB8
:1041300005F08440A343106803631068036B0C8888
:104140004868C01F052510FB05F084402343106814
:10415000036317E01068C36A1F2448680D380525FB
:1041600010FB05F08440A3431068C3621068C36A63
:104170000C8848680D38052510FB05F08440234362
:104180001068C362724B1068724CA04206D1086876
:10419000122803D1586850F48000586010686D4CA4
:1041A000A0421BD10868102802D00868112815D138
:1041B000586850F400005860086810280ED1614813
:1041C0000068614CB0FBF4F40A204443009400986A
:1041D000002803D00098401E0090F8E7002082F8E5
:1041E0003C00002032BC7047594A516831F44031DC
:1041F0005160536841680B4353600168496831F46A
:1042000080710368596001684968036951EA0321B4
:10421000036859600168496831F04071036859606A
:1042200001684B6881680B4301684B6001688968CD
:1042300031F400610368996001688B68C1680B43C1
:1042400001688B60816A3E4B994218D00168896889
:1042500031F070610368996001688B68816A0B4373
:1042600001688B600168896831F04051036899608A
:1042700001688B68C16A0B4301688B600BE00168C1
:10428000896831F07061036899600168896831F06C
:104290004051036899600168896831F00201036840
:1042A000996001688968836951EA430103689960EC
:1042B000016A002914D00168496851F4006103685B
:1042C00059600168496831F46041036859600168C8
:1042D0004968436A5B1E51EA43310368596005E04F
:1042E0000168496831F40061036859600168C96A6E
:1042F00031F470010368D9620168C96AC3695B1E41
:1043000051EA03510368D9620168896831F4007188
:104310000368996001688968036B51EA4321036867
:1043200099600168896831F4806103689960016867
:104330008968436951EA83210368996070470000E6
:104340000100000F1000002040420F00FEF9FFFFA7
:10435000002301400020014038B50400A56B286C03
:1043600010F0500F29D1286C50F400702864286890
:10437000806810F0405F1CD1A869002819D1286816
:10438000C06A10F4700F03D028688068400510D40C
:104390002868406830F0200029684860286C30F4B4
:1043A00080702864286CC00403D4286C50F001008D
:1043B00028642800FFF77EFB03E02000A96BC96C8E
:1043C000884731BD38B50400A56B280001F047FED1
:1043D00031BD000038B50400A56B40202864686C2E
:1043E00050F004006864280001F038FE31BD000080
:1043F000092202FB00F2DFF8F0341A600122DFF834
:10440000EC341A600022DFF8E8341A60DFF8DC24AC
:104410001268110011F00112012AF7D00022DFF812
:10442000CC341A600022DFF8C8341A60704710B527
:1044300004000FF2B5006061DFF8B804E0600FF22D
:1044400015102060DFF8B004E061DFF8B0046062AE
:1044500020202084202020850FF23510A0610FF24B
:10446000C50060600FF2D500A060DFF89404206101
:1044700002220021200000F01AF900220121200070
:1044800000F015F900220421200000F010F90022AC
:104490000521200000F00BF9228DD2B2112120005D
:1044A00000F005F926220621200000F000F9012283
:1044B0000221200000F0FBF803220021200000F080
:1044C000F6F80523DFF83C241021200000F01CF949
:1044D0000523DFF834240A21200000F015F900211B
:1044E00001206269904710BD38B504000D0020001E
:1044F000C0B2002808D12A00D2B24FF40041DFF840
:104500000C04FEF78AFE0BE02000C0B2012807D1A0
:104510002A00D2B24FF40071DFF8F403FEF77DFEFB
:1045200031BD000038B504000D0032232A0092B2DC
:104530002100DFF8E00301F080FA31BD38B5040056
:104540000D0032232A0092B22100DFF8C80301F0E7
:104550004CFB31BD7CB504000D00160032200090EC
:1045600033009BB22A002100DFF8A80301F0FAFB18
:1045700073BD000080B200EE100AB8EE400ADFED15
:10458000240A80EE200ADFED230A20EE200A70477D
:1045900038B504000D002178607850EA012080B21F
:1045A000FFF7E8FFDFF8700380ED000AA178E078FC
:1045B00050EA012080B2FFF7DDFFDFF8600380EDF5
:1045C000000A2179607950EA012080B2FFF7D2FF1A
:1045D000DFF84C0380ED000AA179E07950EA012070
:1045E00080B2FFF7C7FFDFF83C0380ED000A217AB5
:1045F000607A50EA012080B2FFF7BCFFDFF82803A1
:1046000080ED000A0020DFF82413086031BD0000AF
:1046100000FF7F470000C84218B589B00400208C15
:10462000212842DA02220021200000F040F8A020D8
:104630008DF80000002100206269904701220DF1F1
:104640000101684623689847228C01A9E069236824
:104650009847012100206269904701210120626989
:1046600090470120E16888470721200000F0B4F856
:104670008DF800009DF80000C00604D51022072127
:10468000200000F014F89DF800008006ECD52022F0
:104690000721200000F00BF80021012062699047FB
:1046A00003220021200000F002F80AB010BD7CB502
:1046B00004000D001600002100206269904715F1EA
:1046C00020008DF8000001216846626890478DF84F
:1046D00000600121684662689047012100206269FC
:1046E00090472800C0B2072803D02800C0B2E228B3
:1046F00000D108E02900C9B2200000F06DF83100B7
:10470000C9B28842D7D173BD2DE9FF4104000D0025
:1047100016001F003800C0B20B2830DA002100203C
:104720006269904715F120008DF8000001220DF11B
:1047300001016846236898473A00D2B292B201A9B3
:1047400030002368984701210020626990473B00B0
:10475000DBB201AA2900C9B2200000F012F8002043
:1047600080463800C0B2804509DA01A810F8080078
:1047700016F808108842D1D118F10108F1E7BDE818
:10478000FF81F8B584B004000D0016001F0001A8D9
:10479000674991E80C1080E80C103800C0B20B2873
:1047A00018DA00210020626990478DF80450012238
:1047B000694601A823689847FF208DF804003A0055
:1047C000D2B292B2310001A823689847012100209B
:1047D0006269904705B0F0BD38B504000D008DF852
:1047E00000500021002062699047012168466268FC
:1047F0009047FF208DF8000001210DF10100A26813
:10480000904701210020626990479DF8010032BD68
:1048100070B40300FF24FF200A00511E92B2002A48
:104820000DD00600F6B21A78564035005B1C414A9E
:10483000525D62401000404A525D1400ECE7E4B261
:10484000C0B250EA042080B270BC7047F8B588B09E
:1048500004000D001F2D01DA002D00D53EE00020E0
:10486000A84204DA215C6A461154401CF8E728008B
:10487000202804DA00216A461154401CF8E71E2162
:104880006846FFF7C5FF0600300080B24FF4807124
:1048900090FBF1F08DF81E00300080B24FF4807173
:1048A00090FBF1F201FB12008DF81F000027202F72
:1048B0000BDA6846C05D2149C969C8556846C15DC3
:1048C00007A0FEF7F5FD7F1CF1E706A0FEF7F0FD5F
:1048D00020201A4908841948FFF79EFE09B0F0BD50
:1048E000256420000D0A000014E000E010E000E064
:1048F00018E000E08D67000834070020540700200E
:10490000F1430008080000200000002000000240E1
:104910000004024048050020A8070020AC07002042
:10492000B0070020B4070020B8070020BC07002013
:10493000286800084C6100084C620008BC06002092
:104940007CB50400002C01D10120ABE12078C00728
:104950006CD5DFF85403006810F00C0004280BD06D
:10496000DFF84403006810F00C0008280ED1DFF8CF
:104970003C030068400209D5DFF834030068800377
:1049800054D56068002851D101208BE16068B0F5F2
:10499000803F08D1DFF81803006850F48030DFF85A
:1049A0001013086023E06068B0F5A02F10D1DFF885
:1049B0000003006850F48020DFF8F4120860DFF88C
:1049C000F002006850F48030DFF8E41208600EE076
:1049D000DFF8DC02006830F48030DFF8D4120860C1
:1049E000DFF8CC02006830F48020B14908606068CC
:1049F00000280DD0FEF78EF90500AD480068800351
:104A000014D4FEF787F9401B6528F6D3032049E14B
:104A1000FEF780F90500A6480068800306D5FEF77A
:104A200079F9401B6528F6D303203BE12078800705
:104A300050D59D48006810F00C0F09D09A480068C6
:104A400010F00C00082816D198480068400212D4D3
:104A500097480068800704D5E068012801D001204C
:104A600020E19348006830F0F800216950EAC10065
:104A70008F4908602EE0E06800281AD001208D4997
:104A80000860FEF747F9050089480068800706D4EA
:104A9000FEF740F9401B0328F6D3032002E18448C7
:104AA000006830F0F800216950EAC10080490860D0
:104AB00010E000207F490860FEF72CF905007C48D3
:104AC0000068800706D5FEF725F9401B0328F6D3BA
:104AD0000320E7E02078000724D56069002810D083
:104AE000012075490860FEF715F905007348006854
:104AF000800717D4FEF70EF9401B0328F6D30320D6
:104B0000D0E000206C490860FEF704F905006B480E
:104B10000068800706D5FEF7FDF8401B0328F6D392
:104B20000320BFE0207840076AD500200090644849
:104B3000006850F08050624908606148006810F0D9
:104B40008050009000985F48006850F480705D4984
:104B50000860FEF7DFF806005A480068C00506D472
:104B6000FEF7D8F8801B0328F6D303209AE0A0684C
:104B7000012806D15448006850F0010052490860ED
:104B80001BE0A06805280CD14F48006850F00400D5
:104B90004D4908604C48006850F001004A490860DF
:104BA0000BE0494800684008400047490860464813
:104BB000006830F0040044490860A06800280FD065
:104BC000FEF7A8F8050040480068800718D4FEF7F3
:104BD000A1F8401B41F289318842F4D3032061E0FF
:104BE000FEF798F8050038480068800708D5FEF7FA
:104BF00091F8401B41F289318842F4D3032051E0FF
:104C0000A06900284DD02848006810F00C00082842
:104C100045D0A069022831D100202C490860FEF758
:104C200079F8060022480068800106D5FEF772F880
:104C3000801B0328F6D3032034E0E169206A014396
:104C4000606A51EA8011A06A4008401E51EA0041A2
:104C5000E06A51EA00611548016001201B490860C3
:104C6000FEF758F8050012480068800119D4FEF7D5
:104C700051F8401B0328F6D3032013E0002013490A
:104C80000860FEF747F8050009480068800108D56C
:104C9000FEF740F8401B0328F6D3032002E0012072
:104CA00000E0002076BD00BF083802400438024012
:104CB0000038024000004742800E474274380240EC
:104CC00040380240007000407038024060004742A7
:104CD00070B504000D00002C01D101209CE05B4860
:104CE000006810F00F00A84209D2584805705748D4
:104CF000006810F00F00A84201D001208CE020785D
:104D0000800719D52078400705D55148006850F430
:104D1000E0504F4908602078000705D54C480068EE
:104D200050F460404A4908604948016831F0F00198
:104D3000A0680143464801602078C00736D5606806
:104D4000012805D143480068800313D4012063E0A3
:104D50006068022802D06068032805D13D480068D9
:104D6000800107D4012057E03A480068800701D449
:104D7000012051E0364801688908890060680143D4
:104D800033480160FDF7C6FF06003148006810F0A7
:104D90000C006168B0EB810F08D0FDF7BBFF801BF2
:104DA00041F289318842F0D3032035E0274800687A
:104DB00010F00F00854209D224480570234800688E
:104DC00010F00F00A84201D0012025E02078400714
:104DD00007D51F48016831F4E051E06801431C48E1
:104DE00001602078000708D51948006830F4604059
:104DF000216950EAC1001649086000F033F81649ED
:104E0000134A1268C2F30312895CC8401349086050
:104E1000002000F0F5FA002070BD104800687047CF
:104E200080B5FFF7FAFF0E49094A1268C2F38222E1
:104E3000895CC84002BD80B5FFF7EFFF0849044A0E
:104E40001268C2F34232895CC84002BD003C024095
:104E50000838024000380240F067000810000020C7
:104E600058680008F0B500240025002600271E48D9
:104E7000006810F00C00002804D0042804D0082892
:104E800004D02FE019482EE019482CE0194800689A
:104E900010F03F0004001748006840020CD5154888
:104EA0000068C0F388101249A1FB00012200002312
:104EB000FCF758FA05000BE00E480068C0F38810B4
:104EC0000A49A1FB000122000023FCF74BFA050070
:104ED00008480068C0F30140401C40000600B5FBD4
:104EE000F6F000E00148F0BD083802400024F4006C
:104EF00000127A000438024010B50400002C01D1E1
:104F0000012033E0A0690028FFD194F8390000287F
:104F100005D1002084F838002000FEF7A3FA2420F1
:104F200084F839002068C06830F400502168C860F7
:104F3000200000F0C3F82068006930F49040216838
:104F400008612068406930F02A00216848612068C3
:104F5000C06850F400502168C8600020E063202041
:104F600084F83900202084F83A00002010BD2DE993
:104F7000FC4705000C0016001F005FF0000A95F8C2
:104F80003900202860D1002C03D0300080B20028E6
:104F900001D1012059E095F83800012801D1022003
:104FA00053E0012085F838000020E863212085F8CF
:104FB0003900FDF7AFFE8146AE84EE84E88C002810
:104FC0002FD0E88C401EE884A868B0F5805F18D127
:104FD00000974B4600228021280000F038F8002876
:104FE00001D0032031E0A046B8F80000C005C00D94
:104FF000296848602869002801D1A41CDEE7641CE8
:10500000DCE700974B4600228021280000F01FF8C3
:10501000002801D0032018E0207829684860641C2B
:10502000CCE700974B4600224021280000F00FF803
:10503000002801D0032008E0202085F83900002056
:1050400085F83800002000E00220BDE8F6872DE951
:10505000F04105000E0090461F00069C286800687D
:105060003040B04201D1012000E000204146C9B2E9
:10507000884220D114F1010FF0D0002C04D0FDF7AC
:1050800049FEC01B8442E9D22868C06830F4D07061
:105090002968C8602868406940084000296848615C
:1050A000202085F83900202085F83A00002085F876
:1050B0003800032000E00020BDE8F0812DE9F8432E
:1050C000040000212068026932F44052E068024383
:1050D000206802612068C368B7480340A56820695A
:1050E000054360690543E06905432B432068C360BD
:1050F0002068456935F44075A0690543206845611D
:10510000E069B0F5004F40F0AC802068AB498842C0
:1051100003D02068AA49884251D1FFF78CFE81460E
:10512000FFF789FE8046FFF786FE0700FFF783FE44
:105130000600FFF780FE192101FB09F961684900AB
:10514000B9FBF1F16422B1FBF2F2192101FB08F87D
:1051500061684900B8FBF1F319214F4361684900C8
:10516000B7FBF1F16427B1FBF7F7642101FB1733BB
:10517000D90032316423B1FBF3F35B0013F4F8730D
:1051800013EB021319214E4361684900B6FBF1F29B
:105190001921484361684900B0FBF1F06421B0FB7C
:1051A000F1F1642000FB1122D00032306421B0FB09
:1051B000F1F010F00700C31820688360FAE0FFF7F1
:1051C0002FFE8146FFF72CFE8046FFF729FE0700E1
:1051D000FFF726FE0600FFF723FE192101FB09F960
:1051E00061684900B9FBF1F16422B1FBF2F21921C7
:1051F00001FB08F861684900B8FBF1F319214F433E
:1052000061684900B7FBF1F16427B1FBF7F764214E
:1052100001FB1733D90032316423B1FBF3F35B0098
:1052200013F4F87313EB021319214E43616849001C
:10523000B6FBF1F21921484361684900B0FBF1F077
:105240006421B0FBF1F1642000FB1122D000323068
:105250006421B0FBF1F010F00700C31820688360F0
:10526000A8E020685549884203D020685449884204
:1052700050D1FFF7E0FD8146FFF7DDFD8046FFF7E7
:10528000DAFD0700FFF7D7FD0600FFF7D4FD19216F
:1052900001FB09F961688900B9FBF1F16422B1FBF6
:1052A000F2F2192101FB08F861688900B8FBF1F3FB
:1052B00019214F4361688900B7FBF1F16427B1FB05
:1052C000F7F7642101FB1733190132316423B1FB75
:1052D000F3F313F0F00313EB021319214E4361684B
:1052E0008900B6FBF1F21921484361688900B0FBDF
:1052F000F1F06421B0FBF1F1642000FB11221001F8
:1053000032306421B0FBF1F010F00F00C3182068B8
:1053100083604FE0FFF784FD8146FFF781FD804603
:10532000FFF77EFD0700FFF77BFD0600FFF778FD26
:10533000192101FB09F961688900B9FBF1F16422C7
:10534000B1FBF2F2192101FB08F861688900B8FB92
:10535000F1F319214F4361688900B7FBF1F164272C
:10536000B1FBF7F7642101FB1733190132316423D4
:10537000B1FBF3F313F0F00313EB021319214E43C7
:1053800061688900B6FBF1F2192148436168890020
:10539000B0FBF1F06421B0FBF1F1642000FB1122BD
:1053A000100132306421B0FBF1F010F00F00C3188F
:1053B00020688360BDE8F183F369FFFF00100140BE
:1053C0000014014008B584B00023039300290EBFE8
:1053D00001930190491E0291009301A904AB074873
:1053E00078441830FAF7D0FE019909B100220A700A
:1053F000002858BF039805B000BD00BFCBBDFFFF1C
:1054000010B50400074800684FF47A71B0FBF1F062
:10541000FDF7D8FF002221005FF0FF30FDF7B6FF57
:10542000002010BD1000002080B50020009024480E
:10543000006850F48040224908602148006810F458
:10544000804000900098002000901E48006850F0B6
:1054500080501C4908601B48006810F08050009084
:1054600000980320FDF78CFF002200217FF00B0045
:10547000FDF78CFF002200217FF00A00FDF786FF78
:10548000002200217FF00900FDF780FF00220021AB
:105490007FF00400FDF77AFF002200217FF0030077
:1054A000FDF774FF002200217FF00100FDF76EFF81
:1054B000002200215FF0FF30FDF768FF01BD00BF53
:1054C000443802404038024070B504000026FDF721
:1054D00021FC0500002C01D1012065E0606A002854
:1054E000002084F83400022084F835002068006829
:1054F000400840002168086020680068C0070BD59C
:10550000FDF708FC401B0628F6D320206065032029
:1055100084F83500032047E020680168DFF888033D
:1055200001406268A0680243E068024320690243C8
:1055300060690243A0690243E0690243206A0243B2
:105540001143606A042803D1E26A206B02431143CD
:105550002068016020684669F608F600606A064324
:10556000606A042810D1A06A0643E06A00280BD0C4
:10557000200000F09FF9002806D04020606501203F
:1055800084F8350001200FE020684661200000F01B
:1055900073F901003F22E06D82408A60002060655F
:1055A000012084F83500002070BD2DE9F843040087
:1055B0000D0016001F005FF00008D4F8589094F812
:1055C0003400012801D1022039E0012084F83400A0
:1055D00094F8350001282BD1022084F835000020F2
:1055E00060653B0032002900200000F02EF93F21C9
:1055F000E06D8140C9F808102068006850F016007E
:10560000216808602068406950F080002168486186
:10561000206C002805D02068006850F00800216840
:1056200008602068006850F001002168086004E00C
:10563000002084F83400022080464046C0B2BDE815
:10564000F283F8B5040000200090DFF860020068E3
:105650004FF41651B0FBF1F5A66D37680821E06DE7
:1056600081400F4211D02068006840070DD52068A6
:10567000006830F00400216808600821E06D814076
:10568000B160606D50F001006065E06D3900C140AF
:10569000C8070BD520684069000607D50121E06DD9
:1056A0008140B160606D50F0020060650421E06DE2
:1056B00081400F420BD020680068800707D5042185
:1056C000E06D8140B160606D50F0040060651021B4
:1056D000E06D81400F422DD020680068000729D579
:1056E0001021E06D8140B16020680068400311D551
:1056F00020680068000306D4206C00281AD020001F
:10570000216C884716E0A06C002813D02000A16C03
:1057100088470FE020680068C00505D4206800684D
:1057200030F0080021680860206C002802D02000BA
:10573000216C88472021E06D81400F4260D02068B5
:105740000068C0065CD52021E06D8140B16094F80E
:105750003500052828D12068006830F0160021683F
:1057600008602068406930F0800021684861206C42
:10577000002802D1A06C002805D02068006830F015
:105780000800216808603F21E06D8140B160002081
:1057900084F83400012084F83500206D002802D000
:1057A0002000216D88474FE020680068400311D534
:1057B00020680068000306D4606C002820D0200018
:1057C000616C88471CE0E06B002819D02000E16B79
:1057D000884715E020680068C0050BD42068006881
:1057E00030F0100021680860002084F834000120A7
:1057F00084F83500E06B002802D02000E16B884778
:10580000606D002820D0606DC00717D5052084F892
:105810003500206800684008400021680860009852
:10582000401C0090854203D320680068C007F6D46E
:10583000002084F83400012084F83500E06C002852
:1058400002D02000E16C8847F1BD30B404682468C0
:1058500034F4802405682C60046863608468402CFC
:1058600004D10468A2600468E16003E00468A160F8
:105870000468E26030BC7047017801F0FF01103924
:105880001822B1FBF2F10A4A525CC265042905D321
:105890000268920A9202121D826503E00268920A6F
:1058A00092028265806D70473F8010F010000020EA
:1058B0005068000810B402000020936A9169002922
:1058C00016D1002B05D0022B03D008D3032B0DD00B
:1058D0000DE0D16AC90101D50121080035E0D16A86
:1058E000B1F1C07F01D1012108002EE02DE02CE0B4
:1058F0009169B1F5005F18D1002B05D0022B03D0C0
:1059000005D3032B09D00FE0012108001DE0D16A67
:10591000C90101D50121080017E0D16AB1F1C07FAA
:1059200001D10121080010E00FE01900002902292F
:1059300002D9C91E03D008E00121080005E0D16AA0
:10594000C90101D501210800FFE7C0B210BC7047B2
:1059500070B504000D001600002C01D1012024E0D8
:1059600094F84900002805D1002084F84800200060
:10597000FEF746F914F10801206800F071FBA268F7
:105980002900206800F099FB236BA2683100606851
:1059900000F0B6FB2068A16850F8210050F001002B
:1059A0002168A26841F82200002070BD10B50400F3
:1059B000002C01D101203FE0606A00280020A06295
:1059C00094F85100002805D1002084F850002000F0
:1059D000FEF75FF9022084F851002068006830F07B
:1059E0004000216808606168A0680143E0680143E5
:1059F0002069014360690143A06910F4007001430C
:105A0000E0690143206A0143A06A01432068016004
:105A1000A169090C11F00401606A0143206841602A
:105A20002068C06930F400602168C86100206065AA
:105A3000012084F85100002010BD2DE9FC4706002C
:105A40000D0017001C005FF0000A5FF0000896F8D8
:105A50005000012801D10220C5E0012086F8500045
:105A6000FDF758F9814696F85100012802D002202E
:105A70008046B0E0002D03D0380080B2002802D16B
:105A800001208046A7E0032086F8510000207065C1
:105A90003563B786F7860020B0630020B08700200A
:105AA000F0870020706400203064B068B0F5004FCB
:105AB00005D13068006850F4804031680860306873
:105AC0000068400605D43068006850F04000316836
:105AD0000860F068B0F5006F29D17068002802D026
