:020000040800F2
:10000000800700208D3B0008A9390008AB390008A3
:10001000AD390008AF390008B13900080000000010
:10002000000000000000000000000000B3390008DC
:10003000B539000800000000B7390008B9390008D8
:10004000B73B0008BB3B0008BF3B0008C33B0008B0
:10005000C73B0008CB3B0008CF3B0008C73900086E
:10006000CD390008D3390008D9390008D33B00083E
:10007000D73B0008DB3B0008DF3B0008E33B000800
:10008000E73B0008EB3B0008EF3B0008F33B0008B0
:10009000DF390008E1390008ED390008EF390008C0
:1000A000F73B0008FB3B0008FF3B0008033C00084F
:1000B000073C00080B3C00080F3C0008133C0008FC
:1000C000173C00081B3C00081F3C0008233C0008AC
:1000D000273C00082B3C00082F3C0008333C00085C
:1000E000033A0008373C00083B3C00083F3C00084E
:1000F000433C0008473C00084B3C00084F3C0008CC
:10010000533C0008573C00085B3C00085F3C00087B
:10011000633C0008673C00086B3C00086F3C00082B
:10012000733C0008773C00087B3C00087F3C0008DB
:10013000833C0008873C00088B3C00088F3C00088B
:10014000933C0008973C00089B3C00089F3C00083B
:10015000A33C0008A73C0008AB3C0008AF3C0008EB
:10016000B33C0008B73C0008BB3C0008BF3C00089B
:10017000C33C0008C73C0008CB3C0008000000005E
:10018000CF3C0008D33C00082DE9F84F74A7A2B07B
:10019000D7E90045CDE900452C9EDFF8307C04917D
:1001A0008DF843605FF000016FA40D9112944FF041
:1001B000FF368246904699460FE0C3462C461BF810
:1001C000011B0498D0470028049000F0B2800D98DD
:1001D000401C641E0D90F2D1A84498F80000252818
:1001E00007D100210791089109910A910B910C9177
:1001F0000DE06A463146404600F0D0FF050001D1CF
:100200000D98B5E0D9D50125E6E741F0010118F8D0
:10021000010F2028F9D023280CD02B2804D02D281A
:1002200005D0302809D086E041F00201EFE741F027
:100230000401ECE741F00801E9E741F01001E6E7CD
:1002400000200F900AE00F98B84205DA00EB800317
:1002500002EB4302303A0F9208F1010898F80020AF
:10026000A2F130000A28EED398F800002E2818BF1B
:100270000E9629D118F8010F2A280BD1D9F80000C1
:10028000C9F8000008F1010850F8042BC9F8000073
:100290000E9219E02D280CBF18F8010B0020002247
:1002A0000E920BE040B90E9ABA4205DA02EB8204D4
:1002B00003EB4403303B0E9308F1010898F800303B
:1002C000A3F130020A2AEDD3ADF84010129898F845
:1002D000001000F06DFF08B118F8010B8DF8420016
:1002E0009DF84200682804BF98F80010682903D1DF
:1002F00062208DF8420008E06C2804BF98F80000E6
:100300006C2804D171218DF8421008F1010813A85E
:1003100006904A4618F8013B02A9504600F068F8DA
:1003200038B913AA02A9504600F0CAF900287FF58F
:1003300054AF30461CE02A2882D1D9F80020C9F8F1
:10034000002052F8040BC9F8002000280F9003D5B4
:1003500040420F9041F0040108F1010884E70000D9
:100360000000000000000000686A6C747A4C000015
:1003700023B0BDE8F08F622820D0682811D06A2809
:1003800003D06C2827D0712825D10868C01D20F023
:1003900007000860D0E900230830086019461046BD
:1003A0007047002A0A680A60106803D0121D0A60AC
:1003B00000B217E0121D0A6080B217E0002A0A6836
:1003C0000A60106803D0121D0A6040B20AE0121DD4
:1003D0000A60C0B20AE0002A0A680A60106803D006
:1003E000121D0A60C1177047121D0A600021704774
:1003F0007CB50D4611461C462E69B4F1250200F06D
:100400004D811C3A00F08680121F022A40F2828041
:100410000E3A00F00781521F5AD0093A7AD0921E44
:1004200016D0521E35D0521E022A73D9121F30D058
:10043000521F00F09A80521E4AD0521E00F0E480F3
:10044000D21E00F0FD80921E42D0D21E40D02BE181
:1004500095F83A206C2A09D06869421C6A610A68DA
:100460000A6052F8043B0A60335427E10A680A60C4
:1004700052F8043B0A600021009301914FF0FF32D3
:100480002A6329466A4600F096F9002840F1168151
:1004900001E195F83A000122FFF76DFFC5E900017F
:1004A0000023994204DA6869411C69612D210DE03D
:1004B000288F810704D56869411C69612B2105E0FB
:1004C000C00722D56869411C6961202131541CE0B4
:1004D00095F83A000022FFF74EFFC5E9000195F8B4
:1004E0003800010711D5D5E900230020834208BF59
:1004F00082420AD044F02000782806D16869302171
:100500003154401C411C69613454214668693044AF
:10051000E86083E00868C01D20F007000860D0E9AB
:10052000002308300860C5E90023D5E90001C80FA1
:1005300004D06869411C69612D210DE0288F810775
:1005400004D56869411C69612B2105E0C00704D509
:100550006869411C69612021315468693044E86050
:100560002146284600F032FAA8E005F13A02507818
:1005700020B14FF0FF340FF6243070E0107862287D
:1005800008D0682824D06A2812D06C282ED0712870
:100590000ED02BE00A680A6052F8040B0A6020B9FA
:1005A0004FF0FF340FF60C3059E0E96A017085E036
:1005B0000A680A6052F8040B0A6020B94FF0FF3451
:1005C0000FF6F0204BE0EA6AD317C0E9002375E08C
:1005D0000A680A6052F8040B0A6020B94FF0FF3431
:1005E0000FF6D0203BE0E96A018067E00A680A6004
:1005F00052F8040B0A6020B94FF0FF340FF6B42014
:100600002DE0E96A016059E00A680A6052F8040BBB
:100610000A600021C5E90001EE607821284600F05B
:1006200029F94BE06C2285F83A200B680B6053F8EF
:10063000042B0B6052BB4FF0FF340FF6AC200EE0E2
:1006400095F83A206C2AF0D00868086050F8044BFE
:100650000860EC603CB94FF0FF340FF6702000F0FA
:10066000BFFD201A76BD2E6B002E04D5204600F06B
:10067000D7FD044608E032460021204600F0ECFD9C
:10068000002814BF041B3446AC6117E0294600F073
:1006900092F8002812D54FF0FF3076BD6869411CF2
:1006A00069612521315409E06969481C6861252286
:1006B0007254210002D0411C69613454002076BD7F
:1006C0002DE9F0410E460546716B7069B46A091A4E
:1006D000306A091AB069091A706A091AF069091AA8
:1006E00096F838000C1B410790460DD4002C0BDD0A
:1006F0002746B0682021A8470028B06057D0F06A8C
:10070000401C7F1EF062F4D1736942463146284690
:1007100000F0ACFC00284AD1376A002F0ADDB0682F
:100720003021A8470028B06041D0F06A401C7F1EED
:10073000F062F4D1B369F2683146284600F096FCC5
:10074000A8BB776A002F09DDB0683021A847B060E8
:1007500068B3F06A401C7F1EF062F5D1F068B169A1
:10076000F36942183146284600F080FCF8B9B76AB0
:10077000002F09DDB0683021A847B060B8B1F06A39
:10078000401C7F1EF062F5D196F8380041070BD56A
:10079000002C09DDB0682021A847B06038B1F06AAC
:1007A000401C641EF062F5D10020BDE8F0814FF0DE
:1007B000FF30BDE8F0812DE9F8470D46A3B02F6B5F
:1007C000002F8146904648BF6FF0004700F070FD53
:1007D000696B40180FF62C118128D1E90023CDE96F
:1007E000012328BF4FF0FF303ED20024002F2FDD21
:1007F000D8F8001001AA684600F0D2FC0646002E88
:1008000035D4D8F8000008B9761E30D4B7421FDBC3
:100810006869301881280AD30020686303AA294632
:100820004846FFF74DFF040012D40020686103A87A
:10083000D5F814A032466946504400F03FFDB2445A
:10084000C5F814A058F8040B002818BFBF1BCDD161
:100850002CB903AA29464846FFF732FF044614B9CB
:10086000002068616863204624B0BDE8F0874FF03F
:10087000FF34F8E72DE9FC4707468A463E69BAF19E
:100880006F0F08BF082405D04AF02001782914BF53
:100890000A2410243C25D7E90023BAF1640F18BFBD
:1008A000BAF1690F9046994606D100218B4203DACE
:1008B000D8F1000869EB49090020814508BF80454F
:1008C0001FD1386BE8B9082C4CD197F838000107D4
:1008D00048D530203B2586F83B0043E000280ED564
:1008E00097F8380000F01400102808D17A6B786966
:1008F000121A386A121A511A0029C8BF3962BDE8A3
:10090000F3878DF800A0404649462246E31700F0E1
:1009100029FD3032D0B26D1E3A28019504DB9DF8D6
:100920000000A0F151018A187255404649462246FE
:10093000E31700F017FD804689460020814508BF77
:10094000804503D0F86871198842DCD3082C09D19E
:1009500097F83800010705D5715D302902D06D1E6A
:1009600030207055C5F13C01B9617019F860386BE1
:100970008142B3DA411A39624FF6EF70398F014084
:100980003987BDE8F3872DE9D04306460F46144664
:100990004FF00008DFF8389412E0E00707D5424630
:1009A0004B463046394600F0F5FD06460F464046B8
:1009B000494642464B4600F0EDFD641080468946AC
:1009C000002CEAD130463946BDE8D0832DE9F34FFB
:1009D000054641F020048DB0D5E90089612C02AEB6
:1009E00009D0286B002848BF062003D408BF672C15
:1009F00001D101202863D5E9002358004015401C8F
:100A00000ED119030CD00320A8619DF8380061387D
:100A10001A2802D20FF2F46111E00FF2F4610EE035
:100A200058004015401C0FD119030DD10320A861B7
:100A30009DF8380061381A2814D30FF2DC61E86899
:100A4000032200F03BFCD3E1194621F00043B3F54B
:100A5000801F10460DD20027BB4208BFBA42019743
:100A600003D111E00FF2AC61E9E701AA00F064FEE6
:100A70000AE0DFF8607307EB1352DFF85C33019292
:100A80001940DFF858331943C5E90001612C0ED134
:100A9000E86830210170811CE9609DF838106129F7
:100AA0000CBF7821582141706869801C6861D5E9C4
:100AB00000AB2BF0004300202AF00002834204BF69
:100AC0008242002300F05A81612C40F0A980286BFB
:100AD00000284CBF2120401C00904046009F7F1CF6
:100AE00049460022002300F05FFED94601988DF8A8
:100AF000082038BF89F00049001F0190002FD04620
:100B00000DF1090040F3498140F2FF71DFF8D0B2E6
:100B10000C910646404649460022002300F05CFE48
:100B200080F03A814800400D00F11C0210D0002AEC
:100B30000EDD0C98824205DB09F0004040EA0B0113
:100B4000002013E0A448084040EA025140460DE06E
:100B500029F00043002028F00002834208BF8242AF
:100B60000FBF40461C22404600F04EFE804689469C
:100B700000F0E8FEFF1F002F044609DD00F000FF33
:100B800002460B464046494600F00CFF8046894627
:100B9000F01D072104E004F00F0200F8012D2411DC
:100BA000002C01DD491EF6D5491E5CBF002200F86D
:100BB000012DF9D5ECE00020194602AA0A4400E014
:100BC0005B1E12F80149491E8442F9D00F2804D156
:100BD0000DF10900425C521C4254002904D50198D1
:100BE000001D02AE5B1C0190591E12D49DF8380006
:100BF0007218147804F130085FFA88F4392CC4BFF5
:100C0000A0F13A04A044491E02F80189F1D58DF8FB
:100C10003800286B002840F1B080591E2963ACE0F1
:100C2000404649460022002300F0BEFD019938BF2E
:100C300089F0004947F2975041436A4A91FBF2F22A
:100C40000192D2F1070204DD40464946FFF79BFEC0
:100C50000AE0524200206449FFF795FE02460B4627
:100C60004046494600F010FF8046662C286BDFF8AE
:100C70007CB106BF019F0A3706273F18142FC8BF53
:100C8000142730208DF8080089460DF1090000E096
:100C90003046002F34DD06464046494601F018F83C
:100CA00001460A4606F1080304200A26B2FBF6F6BE
:100CB00006EB860EA2EB4E02303203F8012C0A221C
:100CC000B6FBF2F202EB820EA6EB4E063036401E69
:100CD00003F8026DE9D1083F002F03F10806D7DDC4
:100CE000084601F009F802460B464046494600F026
:100CF00059FE00225B4600F04DFC80468946CBE75A
:100D00000DF10901401A0DF1090604E00199491E8F
:100D1000401E0191761C31783029F7D0662C02D123
:100D20000199491C03E0652C0CBF012100212B6BAC
:100D3000CB189842B8BF431E002B1ED4834204DA5E
:100D4000F05C3528A8BF392000DA30201946721E21
:100D500002EB010800E05B1E18F80199491E81456D
:100D6000F9D0392802D1705C401C7054002904D598
:100D70000198401C16465B1C0190019800B200903F
:100D80001BB29DF838103246284600F035F82FE0A7
:100D9000C61D002F3FF7BEAE30460DF10901401AC7
:100DA000009903468842C8BF0B46002B0DF1090687
:100DB0003FF52FAF8342BFF6FEAE0DF10900C05CD8
:100DC00007287FF7F8AE0F20F6E60000CBCCCC0C5E
:100DD0000000244002FCFFFFFFFF0F800000E03F07
:100DE0000000F07FA08601000000F03F84D797410B
:100DF0000FB0BDE8F08F00002DE9F84783B006463C
:100E00008A461746984600F0CDF9B8F1000F406ABF
:100E1000356B90F8009002DC4FF00108BFA7BDF9D8
:100E200030404AF02000662808BF641C15D06728AF
:100E300040F0848014F1040FC0F28680AC4280F24E
:100E4000838096F83800641C010702D4A845B8BF17
:100E5000454620B22D1A48BF00250FFA84FAF068E3
:100E6000B169BAF1000F25DC4A1C30234354002D30
:100E700003DC96F83800010703D5F06800F802900B
:100E8000521C15EB0A0FB8BF6C4220B24419414204
:100E90004445B8BFA046B26171620FFA88F5F561AA
:100EA000F068B3692A463946184400F007FA641B13
:100EB000B462C4E022B29045084417DA424639468B
:100EC00000F0FCF9B0694044B061AAEB0801002DC4
:100ED000716203DC96F838100A0705D5F16801F84D
:100EE0000090F069401CF061B562A8E0394600F05E
:100EF000E5F9B069002D5044A8EB040803DC96F82E
:100F000038100A0703D5F16801F80090401CB06161
:100F10000FFA88F08542F068B369B8BFA8460FFAA7
:100F200088F207EB0A01184400F0C8F9B0690FFA1B
:100F300088F10844B061681A706280E0BAF1610F0C
:100F400014D14FF0700A16E0A84504DA96F838106C
:100F50000A0758BF45466D1E48BF0025BAF1670F06
:100F600014BF4FF0450A4FF0650A04E0BAF1410F93
:100F700008BF4FF0500AB169F368481CB061002DFA
:100F800017F8012B5A5403DC96F838100A071BD5C2
:100F9000F168431CB36101F80090002D14DDA8F145
:100FA00001080FFA88F08542F068B8BFA8460FFA2A
:100FB00088F23946184400F081F9B0690FFA88F1D7
:100FC00008446D1AB0617562F068B1690844002C7C
:100FD00080F800A003D42B214170811C03E02D2157
:100FE00041706442811C00206A460AE023460A24BC
:100FF00093FBF4F404EB8405A3EB450302F8013BF7
:10100000401C24B2002CF1DC012806DC4AF020024E
:10101000652A04BF302201F8012B48B9302001F8BD
:10102000010B07E0401E1DF80020303201F8012BB3
:101030000028F7DCF068B2691044091AF16196F8EB
:10104000380000F0140010280DD17169B069411802
:10105000706A4118F0694118B06A4118706B81429A
:10106000BCBF411A316204B0BDE8F087F8B505464F
:101070000E4617461C46002074B117F8011BB068D5
:10108000A847B06030B1F06A401CF0620020641ED6
:10109000F3D1F2BD4FF0FF30F2BD00007072696E07
:1010A00074665F733A20256E20646973616C6C6F9F
:1010B000776564007072696E74663A2062616420BC
:1010C000256E20617267756D656E74007072696E51
:1010D00074665F733A2062616420257320617267D1
:1010E000756D656E740000007072696E74665F7372
:1010F0003A2062616420256C7320617267756D65AA
:101100006E74000000000000000000006E616E00C0
:101110004E414E00696E6600494E46003000B1F502
:10112000807F02D34FF0FF3070470170012070477D
:101130000078401E8041C043C00F70471A48704776
:1011400030B45368D418042B09DA41B1057804F897
:10115000015B10F8015B15B15B1C491EF3E753609E
:1011600030BC704738B514461D4661B1FFF7E8FF43
:1011700061686A6B204690476FF00102811A02D0C5
:10118000491E03D005E06FF0010032BD4FF0FF3083
:1011900032BD0021616032BDDA6B1047024BE1E7DE
:1011A000014BF9E7014870473C0000200400002093
:1011B0000278C9B28A421AB11CBF10F8012FF9E7B0
:1011C00018BF002070478268521C8260426832B1AA
:1011D0000268531C036011704168491E41607047EA
:1011E00080B500B906A005490B681BB12222002179
:1011F000984701E000F08DFD222002BD7C03002015
:10120000636F6E73747261696E742068616E646C72
:1012100065723A20626164206D6573736167650071
:1012200000F10103810704D010F8011B89B1810787
:10123000FAD10268B2F10131914311F0803F04BF4D
:1012400050F8042FF6E710F8011B11B110F8011B3C
:10125000FBE7C01A70470000C9B2830706D0521ED0
:1012600022D310F8013B9942F7D11FE0083A13D37B
:1012700002F1040241EA012141EA014150F8043B34
:10128000121F21BF4B40A3F1013C2CEA030C1CF0C0
:10129000803FF3D0C9B2001F083210F8013B521E44
:1012A00028BF91EA030FF8D818BF0120401E7047ED
:1012B00080B5FFF743FF006C02BD000062B38B07EF
:1012C00008D0521E11F8013B00F8013B00F02480C9
:1012D0008B07F6D1830740F0208000BF103A07D378
:1012E00030B4B1E83810103AA0E83810F9D230BC68
:1012F000530724BFB1E80810A0E8081044BF51F814
:10130000043B40F8043BD20724BF31F8022B20F8FD
:10131000022B44BF0B7803707047121F17D35B007A
:1013200009D151F8043B20F8023B1B0C121F20F896
:10133000023BF6D20BE051F8043B00F8013B1B0ADC
:1013400020F8023B1B0C121F00F8013BF3D238BF00
:10135000121D521E24BF11F8013B00F8013BF8D8C2
:1013600070470000B3BBD9B1B2F5803F7DD2022AED
:101370001ED98C46B1FBF2F102FB11C31B0443EAF8
:101380001043B3FBF2FC02FB1C3380B240EA034380
:10139000B3FBF2F002FB103240EA0C40002370472E
:1013A000022A05D98446B0FBF2F002FB10C2704756
:1013B0004AB105D100F0010249085FEA30007047E8
:1013C00000220023704700F0A7BC0B0002000021A0
:1013D00000207047904271EB030CF6D3B3F5803FC9
:1013E0002FD2F0B5B3FA83F7B1FA81F4A7F10F0E5B
:1013F0003D1B5340CEF1200602FA0EF2F34153405A
:10140000B5F10F0746D80F3C2C444140C4F12006EB
:10141000A040F1414140B1FBF3F603FB1611A2FBE2
:101420000645001BA94102D2761E8018594180EA68
:10143000010221FA0EF362FA0EF200215A40304600
:10144000F0BD30B4B1FBF3FC03FB1C11A2FB0C4557
:10145000001BA94103D2ACF1010C8018594130BCEA
:1014600002460B46604600217047B2F1807F65D38B
:10147000F0B5B2FA82F7B1FA81F4C7F10F063D1B5D
:1014800022FA06F307F1110EF24120355A40B5F168
:101490000F07B8D94140C4F12006A040F1414140B6
:1014A000B1FBF3FC03FB1C11A2FB0C45001BA94183
:1014B00003D2BCF1010C801859410F2F12D30F3FFA
:1014C000C90341EA5041B1FBF3F603FB1611A2FB3D
:1014D0000645D4EBC030A94102D2761E801859418E
:1014E00046EACC3C07B34140C7F12006B840F14181
:1014F0004140B1FBF3F603FB1611A2FB0645001BAE
:10150000A94102D2761E8018594180EA010221FACF
:101510000EF3C7F1200462FA0EF20CFA07F05A40FB
:101520002CFA04F13043F0BD80EA010221FA0EF3F7
:10153000002162FA0EF260465A40F0BD8C46B1FBC3
:10154000F2F102FB11C31B0243EA1063B3FBF2FC8E
:1015500002FB1C331B024CEA002043EA1063B3FB7E
:10156000F2FC02FB1C331B024CEA002043EA10632E
:10157000B3FBF2FC02FB1C331B024CEA002043EAE3
:101580001063B3FBF2FC02FB1C324CEA0020002388
:1015900070470000B0B581EA030C0CF0004C40F23B
:1015A000FF7515EA11541DBF15EA1357AC42AF423F
:1015B00039E0E41923EA455343F48013C90241F0AA
:1015C000004141EA505EC7021100A7FB0202002859
:1015D0004FF00000EEFB01204FF00001E3FB07217C
:1015E00018BF42F00102401800214941E3FB0E01FF
:1015F000A4F580640F0302D252004041494154F1E6
:1016000001046CDD470872F1004250F1000051EB1B
:101610000451A1F580115CBF41EA0C01B0BD4CEA58
:1016200005510020B0BD05EA1357AC4214BFAF42CC
:1016300041E050EA410E1CBF52EA430E02E061460F
:101640000020B0BD24423C441BD15FEA070EF6D017
:10165000090302BF01460020AEF1140EB1FA81F772
:10166000AEEB070401FA07FE0C37C7F1200100FAC0
:1016700007F7C8404EEA000E23EA455343F48013AF
:10168000A2E733F00043B3FA83F704BFB2FA82FE55
:1016900077440B3FE41BB7F1200E2FBF02FA0EF385
:1016A000BB40C7F1200E22FA0EFE38BF43EA0E03FC
:1016B000BA40641C82E750EA410E14BF52EA430E5E
:1016C0006FF000014FF4001717EB430F8ABF194664
:1016D00017EB410FB5E74CEA05510020B0BDD4F13E
:1016E0000104B4F120070FDAC4F12007520828BF23
:1016F00042F0010210FA07F501FA07F7E1BF2A43A9
:10170000E0403843E1400FE0352C98DCC7F120047D
:1017100052EA400220FA07F218BF42F0010231FA01
:1017200007F0A1400A43002172F1004250F100008D
:1017300051EB0C01B0BD000010B5144600F002F8EA
:10174000226010BDC1F30A5343B14A0012F5001FD5
:1017500028D2A3F2FE32A1EB0251704750EA410CAD
:1017600020D001F0004C31EA0C01B1FA81F204BF43
:10177000B0FA80F3D2180B3AB2F120032CBF00FA72
:1017800003F1914041EA0C013EBFC2F1200C20FA66
:101790000CF319439040524240F2FD33D21A01EB50
:1017A00003517047002270474FF4001C1CEB410F9F
:1017B00094BF1CEB430F09E041EA030C50EA4C0CC8
:1017C00052EA0C0C03D2994208BF9042704714BFF2
:1017D0008B428242704700004FF4001C1CEB410F0B
:1017E00094BF1CEB430F09E041EA030C50EA4C0C98
:1017F00052EA0C0C03D28B4208BF8242704714BFDE
:101800009942904270470000124254D440F2FF7C4B
:101810001CEA11530FD0634531D09B1863453CBF80
:1018200001EB0251704701F0004141EA0C510020E8
:10183000AFF30080704750EA410320D001F0004C24
:1018400091EA0C011CD0B1FA81F30B3B9A420DD9FD
:10185000D21A994051EA0C01C3F1200C20FA0CFC79
:1018600061449840531C40F2FF7CD7E7914041EA25
:101870000C01C2F1200C20FA0CF319439040704780
:10188000B0FA80F31533202BE0D3202AEED3203A90
:10189000203B9A4209D9D21A00FA03F141EA0C011D
:1018A0000020531C40F2FF7CB8E700FA02F141EA45
:1018B0000C0100207047524240F2FF7C1CEA115399
:1018C0000DD06345DBD0B2EB030C3CBFA1EB025162
:1018D00070470CF1010221EA035141F4801150EAF2
:1018E000410CCCD001F0004C352A27DC30B481EA21
:1018F0000C01B2F1200309DAC2F12003044601FA17
:1019000003F5D0402843D1409C400CE0C3F12002B5
:10191000450020FA03F418BF44F0010421FA03F053
:1019200091400C43002174F1004550F1000051EB4F
:101930000C01244230BC7FF47BAF7047614600202D
:1019400076E70000C1F30A5340F2FE329B1A14DD21
:10195000D3F120034FEAE17208DDC90241EA505198
:1019600041F00040D84080185040704703F2E13009
:1019700010B1D24382F00040704700207047000051
:10198000C11768B14840401AB0FA80F29040D21CAA
:10199000C907C2F5846241EA025202EBD021400538
:1019A0007047000070B44FF0004591EA030F40F11A
:1019B000B5816B40841A71EB030603D2001BB14161
:1019C000121973414FF4001C1CEB410F34BF7CEB28
:1019D000430442E00C0DA4EB1356352E4FDC45EAD0
:1019E000C323DB0A45EAC121C912B6F120050DDD8A
:1019F00063FA05F6EB4086EA0305124218BF45F08C
:101A00000105C01851F100010CD213E062FA06F58D
:101A1000F2405540F3415A40B340F3405A408018D9
:101A2000594107D349085FEA30005FEA350528BF0E
:101A300045F0010501F58011420875F1004250F1B1
:101A4000000041EB04514E0016F5001F70BC38BF7A
:101A500070470020090D090570471CEB410F10D29B
:101A600052EA43060BD0BCEB410F05D80C0DAB433B
:101A7000661E342EB6DD02E0AB438018594170BCBF
:101A8000704770BC70470000F0B540F2FF7581EA06
:101A9000030C0CF0004C15EA11541DBF15EA135746
:101AA000AC42AF42E5E0BC41C1F31301C3F3130301
:101AB000801A994143F4801304D2641E40004941C6
:101AC00080185941C90241EA5051B1FBF3F603FBBA
:101AD0001611A2FB0675D7EBC020A94102D2761ED3
:101AE00080185941C90241EA5051B1FBF3FE03FB92
:101AF0001E11A2FB0E75D7EBC020A94103D2AEF197
:101B0000010E80185941890241EA9051760546EA52
:101B10008E2EB1FBF3F603FB1611A2FB0675D7EB75
:101B20008020A94102D2761E80185941C90241EA9B
:101B300050514EEA060EB1FBF3F603FB1611A2FB61
:101B40000675D7EBC020A94102D2761E80185941F4
:101B5000C90241EA5051B1FBF3F703FB1711A2FB95
:101B60000735D3EBC020A94167F100070CBF004245
:101B700047F0010766F3D5274FEA1E31B80814F580
:101B8000806412DDBD0775F1004250EB0E5051EB41
:101B9000045111F5801F5CBF41EA0C01F0BD4CF00F
:101BA0007F6141F0E0410020F0BDBD076D0840EAD3
:101BB0000E5041F48011D4F10104B4F120060ADA88
:101BC000C4F120060200E04001FA06F3E1401843A8
:101BD000B24015430EE0342C13DCC6F1200445EA74
:101BE00040056D0820FA06F2154321FA06F0A140DF
:101BF0000D43002175F1004250F1000051EB0C0142
:101C0000F0BD00205FEA0C01F0BDCFB992185B4136
:101C1000B3FA83F704BFB2FA82F6BF190B3FB7F1EC
:101C200020062FBF02FA06F3BB40C7F1200622FAB6
:101C300006F638BF3343BA401CB1E419641E33E7DB
:101C40007F4231F00041B1FA81F404BFB0FA80F66E
:101C5000A4190B3CB4F120062FBF00FA06F1A140F5
:101C6000C4F1200620FA06F638BF3143A0403C1BE1
:101C70001AE7AC421ABF05EA1357AF4212E050EA26
:101C800041061CBF52EA4306BFE750EA410730460F
:101C900061461CBF41EA0551F0BD52EA430C08BF42
:101CA000C143F0BD00204FF4001616EB410F98BF62
:101CB00016EB430F08BF16EB410F24BFC14305E0ED
:101CC00016EB430F0CBF61464CEA0551F0BD000016
:101CD000400D491840EA81200CD2490DA1F58061E0
:101CE000491C40F0004005DBD1F11F0154BFC84042
:101CF000C017704700207047014648B1B0FA80F124
:101D00008840C91CC1F58461090501EBD02140055B
:101D10007047012000F0B6B870470000841A71EBDC
:101D2000030604D26E40001BB141121973414FF4F7
:101D3000001C1CEB410F34BF7CEB430682E00C0D12
:101D4000A4EB1356362E7BDC012E45EAC32341DC7F
:101D500043EA525312BFD20292025B08240545EABD
:101D6000C12141EA5051D2EBC020994125D407D17D
:101D7000B0FA80F610FA06F162D00020203608E0B2
:101D8000B1FA81F6B140C6F1200220FA02F2114305
:101D9000B0404FEAF474B4EB465434F001064FEA15
:101DA00074040AD8D6F50016760D04F00044F0400D
:101DB00061FA06F25040F1404840C00A40EA415002
:101DC00021F0004128BF5FEA500550F1000044EBCC
:101DD000D12135E0DB0A45EAC121C90AB6F1200567
:101DE0000EDD42EA0242120CC5F1200603FA06F6A5
:101DF000EB4042EA06056D42984161F100010DE0B9
:101E000062FA06F5F240554063FA06FC82EA0C02DB
:101E1000F3405A406D42904161EB030111F4801F81
:101E200005D1641E620502D06D004041494121F494
:101E30008011430875F1004350F1000041EB04515B
:101E400070BC70471CEB410F15D223F0004352EADF
:101E500043060BD04FEA4C0CBCEB410F04D80C0DE1
:101E6000661E342EB7DDEBE7801A994150EA410631
:101E700008BF0021E4E708BF1CEB430F28BF6FF049
:101E80000001DDE780B5AFF30080024A11001820A1
:101E9000ABBEFBE7260002007CB5040000F08280A8
:101EA00004F13C05287820B900216970204600F033
:101EB000FBFB00F02BFA2068026842F0010202608E
:101EC00000F006FD064620684168CA076CD400F0A1
:101ED000FFFC801B0B28F6D312E2016821F0800181
:101EE0000160E0690128206804D1016841F04001E7
:101EF000016003E0026822F040020260206A0128CB
:101F0000206804D1016841F02001016003E002680B
:101F100022F020020260606A0128206804D1016872
:101F200041F01001016003E0026822F0100202603B
:101F3000A06A0128206804D1016841F0080101600D
:101F400003E0026822F008020260E06A01282068CB
:101F500004D1016841F00401016003E0026822F04D
:101F600004020260A168E06822680143206901431D
:101F7000606901436068401E0143D16120680168C7
:101F800049084900016000F0A3FC0646206841684A
:101F9000CA0714D500F09CFC801B0B28F6D39BE7E6
:101FA00004202870012076BD4168CA07F8D5A169D0
:101FB000012992D1026842F08002026091E74068F4
:101FC000C107EDD40021696001202870002076BD92
:101FD000F8B54A69DFF83835012000FA02F21868CE
:101FE00040F0010018601C6824F47C541C601868E0
:101FF0004C6A40EA04201860D443D8692040D86174
:10200000DFF8100500F5117500F51076C86968B99C
:10201000DF682740DF60C8684F6800F038F80F6855
:102020008868C7EA004C486945F830C0CF69012F7D
:102030000DD1D8681043D8604F68086800F027F8C1
:10204000CE6888684F69C6EA004045F8370088695D
:1020500018B95D6825405D6002E05868104358601B
:10206000086910B95D692C405C610869012802D1DA
:102070005C6914435C61086A012802D1D9690A438A
:10208000DA6118684008400018600020F2BDD1F8FD
:1020900014C0C7EA004046F83C0070472DE9F84FED
:1020A000054605F13C0628688268530106D482681B
:1020B000130103D48268D30040F1BE807278012AF4
:1020C00008BF022000F0BB80012373703278222AFF
:1020D00004D0322A04D0622A04D005E0422204E06F
:1020E000522202E0722200E0122232708268530112
:1020F00048BF002404D4826813014CBF0124022489
:1021000000F5C0702201835803F0010383502B6B4C
:102110002F68D3F80CA0986807F5C07728B9B8588D
:102120001B684AEA4353184308E057F802C05B684B
:1021300040EAC3004AEA000040EA0C00B8508A4670
:10214000286BDFF8D483017CDFF8D09301F00F0116
:102150000161286800F5C2708158090909018150A0
:10216000286800F5C2718B582F6B3869DFF8B0739F
:1021700003438B50286B837DC17D1B0443EA0163BD
:10218000417D007D00F05DF8C0F88831286B837ECA
:10219000C17E1B0443EA0163417E007E00F051F8DA
:1021A000C0F88C31286800F5C070815841F00101F9
:1021B000815000F08DFB83462868B4B9806809EA35
:1021C0000000484518D01AF1010FF5D0BAF1000F00
:1021D00005D000F07DFBA0EB0B008245ECD2032084
:1021E00030702868CCB980211DE0012C806810D1A6
:1021F00008EA00004045E6D13078422818D052283D
:1022000018D072280CBF622001203070002070703E
:1022100015E03840B842D6D1EEE7012C0CBF4FF4A0
:1022200000414FF40001816000207070032006E03F
:102230002220EAE73220E8E7042030700120BDE8E0
:10224000F28F43EA0123034328681044704718B50E
:102250000B0000F13C020BD11378222B1CBF147829
:10226000422C16D01378622B1CBF1478722C10D01D
:1022700001290BD11378322B1CBF1478522C08D0B3
:102280001378622B1CBF1478722C02D05378012B68
:1022900001D1022012BD012454700B0013780AD121
:1022A000122B04D0322B0FD0522B0FD001E042233F
:1022B0000FE022230DE0122B04D0222B04D0422B5E
:1022C00004D005E0522304E0622302E0722300E020
:1022D000322313700023536003685C6944F40F4495
:1022E00044F001045C6100235370002900684169D7
:1022F0000CBF41F00A0141F050014161002012BDC4
:102300000320287000206870032076BD022028700A
:102310002068016821F0020101607047F8B50446A9
:1023200000202268D568002100265369ED0605D5F6
:102330001B0703D510234FF40076D360226815697C
:102340005369ED0605D55B0603D5102346F4806678
:10235000136104F13C0522685369DF0749D597688A
:102360006E4B1F409F4297686B4B08BF01201F4078
:102370009F4297686A4B08BF01211F409F420CBFD4
:10238000012300230843184333D090689168936871
:102390004008490A00F0010001F001015B0C08430C
:1023A00003F0010318431DD05069400840005061FC
:1023B0002978122904D12068416921F40F41416133
:1023C0002878422808D0522804D072280CBF6220F6
:1023D000012002E0322000E022202870204600F098
:1023E0007DFA01E046F4006621684E488A6802439F
:1023F0008A602068C168406911F0030F05D080072A
:1024000003D50021204600F091F820680169406959
:1024100011F0030F05D0C00603D50121204600F0BE
:1024200085F8686806436E6020688369416942697F
:10243000DB0707D5C90505D5110403D5696841F047
:10244000010169608369416942699B0707D5890574
:1024500005D5110403D5696841F0020169608369FB
:10246000416942695B0707D5490505D5110403D5C4
:10247000696841F004016960816901F070014B1ED7
:10248000416942699B41DB0F2FD109052DD511040C
:102490002BD5816901F0700110290AD020290CD0B8
:1024A00030290ED0402910D0502912D0602914D0E4
:1024B00017E0696841F0080112E0696841F0100115
:1024C0000EE0696841F020010AE0696841F04001CE
:1024D00006E0696841F0800102E0696841F48071BA
:1024E0006960816921F070018161686870B122685A
:1024F000042151600120287021680B484A6902407C
:102500004A612046BDE8F24000F091B9F1BD0000FB
:10251000006600400064004000030008030000045F
:102520000000031019050100A470FFFF38B50A0070
:1025300002680CBF436B836B0C0102F5D8752A59F6
:1025400012F004029A60056805F5D87503D12A597E
:10255000520D1A6002E02D59ED085D60026802F527
:10256000D8752D5905F00205DD6002682244D2F8C5
:10257000B421196202F00F021A6102682244D2F8F3
:10258000B421C2F30722DA6102682244D2F8B821EA
:102590001A7502682244D2F8B821120A5A750568E1
:1025A0002A19D2F8B821120C9A7505682A19D2F89E
:1025B000B821120EDA7500F04EF81A76026822443D
:1025C000D2F8BC21120A5A7600F045F8120C9A761D
:1025D00000F041F8120EDA760B00026806D12023D3
:1025E000D3600268536923F00A0305E020241461D4
:1025F0000268536923F05003536190F83C20222A6B
:1026000018BF322A04D10268536923F40F4353617F
:10261000002990F83C100AD142290FD0622902D03B
:10262000722902D010E032210FE052210DE0522930
:1026300004D0622904D0722904D005E0122104E0FC
:10264000222102E0422100E0012180F83C1000F04C
:10265000E7F8002032BD05682A19D2F8BC2170477E
:1026600080B5794879490160032141604FF080418C
:1026700081600021C1604FF4002101614FF44011DD
:102680004161002181610121C1610021016241623A
:102690008162C162FFF700FC28B1BDE804405A2105
:1026A00073A000F0A5B901BD00686849884200D058
:1026B000704780B586B00021654800914FF4C05145
:1026C000026842F0007202600222006800F00070AE
:1026D00000900098019100200390032109200491AB
:1026E0000590029201A95B4800F092F900220021B6
:1026F000142000F0A9FA142000F0C3FA00220021EF
:10270000152000F0A1FA152000F0BBFA00220021EC
:10271000162000F099FA162000F0B3FA07B000BDB9
:1027200010B5494C04F16C00206304F1880060632B
:1027300000F00BF800212046FFF789FD00F090F82B
:10274000BDE810405CA000F017BB3F480021816548
:10275000C16501210166002141648164C164016594
:102760004165012141660E21816600F14401FFF7B8
:102770002FBC10B5344B1C6B20600020E060A060C3
:1027800022611C6B0A5C0444401C08282275F8DB9B
:1027900064211846FFF782FC401E8041C00F10BD27
:1027A0002DE9F041044640F6010084424FEA01055C
:1027B00045A70FF2BC0806D3E0224146384600F098
:1027C0001DFBAFF30080244E3068322806DBE12287
:1027D0004146384600F012FBAFF3008030681F49D5
:1027E00041F8305001EBC001401C4C6030600020CB
:1027F000BDE8F08170B5184B184C1B68002200E052
:10280000521C9A420ADA04EBC2056E68B042F7D154
:10281000084654F832108847012070BD002070BD72
:1028200010B50446616B0868FFF7E4FF05E010B5DA
:10283000054A136804460020586000212046FFF72F
:1028400006FD00F00DF810BD1C02002000640040E1
:102850004038024000000240740300208C00002039
:1028600020B12068416941F00A01416170470000D0
:10287000433A5C55736572735C77616E6779756E08
:102880007875616E5C4465736B746F705C526F62D7
:102890006F636F6E5C70726F6772616D5C68616EA2
:1028A000646C655C68616E646C655C5372635C63E8
:1028B000616E2E630000000063616E2072656164CA
:1028C000792121210000000074657374000000006C
:1028D00001480068704700BF78030020704700007F
:1028E00010B500F09DFA00F01BF800F0B3FA00F00C
:1028F00005FAFFF7B5FEFFF713FF40F245140FF29C
:10290000D5012046FFF74CFF5FF0060239A12046B3
:10291000FFF72FFF39A000F02FFA00F034FBFCE79F
:1029200080B592B0002000902848016841F08051A5
:1029300001600021006800F0805000900098244859
:1029400000910221026842F4804202600122006884
:1029500000F4804000900098069110200A900C919D
:1029600000200D90082109920E91A8200F900221BD
:1029700004221091119206A800F092FB00B1FEE72C
:102980000F21019102200021029003914FF4A050E9
:102990004FF480510490059101A8052100F0E8FC56
:1029A00000B1FEE700F069FD4FF47A71B0FBF1F081
:1029B00000F072F9042000F083F9002200214FF0AA
:1029C000FF3000F041F913B000BD00004038024074
:1029D00000700040E0B5002143181B7D0DF8013068
:1029E000491C0829F8DB694607A000F0C5F907BDB6
:1029F000FEE7000068656C6C6F0000007374617224
:102A0000742E2E2E0D0A000025730D0A0000000002
:102A10002DE9F84F4FF0000E714A724BDFF8C88174
:102A20004FF00F0906468A460121DAF8004001FA04
:102A30000EF10C408C4240F0BC80DAF80450022DBC
:102A400018BF122D4FEA8E0012D14FEADE0506EBB9
:102A5000850C00F01C05DCF8207009FA05FB27EA5C
:102A60000B07DAF810B00BFA05F53D43CCF820500F
:102A70004FEA4E0C032537689AF804B005FA0CF5B6
:102A8000ED430BF0030B2F400BFA0CFB4BEA07074F
:102A90003760DAF80470012F18BF022F03D0112F0E
:102AA00018BF122F13D1B768DAF80CB02F400BFA09
:102AB0000CFB4BEA0707B760776827EA0101DAF8F1
:102AC0000470C7F3001707FA0EF739437160F16815
:102AD0000D40DAF8081001FA0CF12943F160DAF838
:102AE0000410C90065D50025009500F00C00D8F849
:102AF000001041F48041C8F8001009FA00F7D8F836
:102B0000005005F48045009500994FEA9E0153F866
:102B1000215025EA0707354DAE4208BF002522D0D7
:102B2000334DAE4208BF01251DD0324DAE4208BF25
:102B3000022518D0304DAE4208BF032513D02F4DCB
:102B4000AE4208BF04250ED02D4DAE4208BF05256C
:102B500009D02C4DAE4208BF062504D02A4DAE4206
:102B60000CBF0725082505FA00F0384343F821007B
:102B7000E0431168DAF804500140ED0348BF2143F7
:102B800011605168DAF804500140AD0348BF214399
:102B900051609168DAF804500140ED0248BF2143CA
:102BA0009160D1680140DAF80400800248BF2143F7
:102BB000D1600EF1010EBEF10F0F7FF635AFBDE80B
:102BC000F18F0069084018BF0120C0B270470F4A5A
:102BD000136803421CBF106000F00CBA704700007D
:102BE000003C0140083801404438024000000240E7
:102BF0000004024000080240000C024000100240A5
:102C00000014024000180240001C0240143C014025
:102C10000901020081B002D43048815405E03048F7
:102C200002F00F02104400F8041C01B070472D4A56
:102C300013684FF6FF0100020B4000F4E0601843F8
:102C4000294908431060704738B5264B1C68C4F307
:102C50000223C3F10704052C28BF04241D1D072DE2
:102C600034BF0023DB1E012505FA04F4641E214055
:102C7000994005FA03F35B1E1A401143BDE8344046
:102C8000C6E7010007D4012200F01F01174B8A405C
:102C9000400943F82020704710B5401EB0F1807FF6
:102CA00001D3012010BD124C60600F214FF0FF30A6
:102CB000FFF7AEFF0022A26007202060002010BDB9
:102CC00004280B4904D1086840F0040008607047EC
:102CD0000A6822F004020A607047000000E400E085
:102CE00018ED00E00CED00E00000FA0500E100E066
:102CF00010E000E000F000B87047000080B52948FF
:102D0000294901604FF4E131416000218160C160D7
:102D100001610C21416100218161C16100F0FAFB78
:102D200028B1BDE80440432122A0FFF761BE01BDE8
:102D300000681D49884200D0704780B586B00021E8
:102D40001A4800914FF4C061026842F0100202601C
:102D50000222006800F0100000900098019101200C
:102D600003900321072004910590029201A91048C5
:102D7000FFF74EFE07B000BD0EB418B50246094C71
:102D800003AB652104F1440000F04CFD82B24FF426
:102D90007A7304F14401204600F0F8FB11BC5DF8A1
:102DA00010FB0000C802002000100140443802401F
:102DB00000000240433A5C55736572735C77616E44
:102DC0006779756E7875616E5C4465736B746F704E
:102DD0005C526F626F636F6E5C70726F6772616D71
:102DE0005C68616E646C655C68616E646C655C53A4
:102DF00072635C75736172742E63000000B583B0FA
:102E00000091019202906A4604491820ABBE002846
:102E100001D1FEF77EFF03B000BD00BF101002001D
:102E200080B50B48016841F400710160026842F40A
:102E300080620260016841F4807101600320FFF745
:102E4000F6FE002000F00CFD00F01EFD002002BD8B
:102E5000003C024010B586B0002000908B4C8C489E
:102E6000016841F080010160026802F08002009276
:102E7000002200990092036843F004030360016894
:102E800001F0040100910099009240F2C1610368D1
:102E900043F001030360006800F001000090009817
:102EA00001910292039200F042F84FF49F7001905A
:102EB0000020784900F039F84FF4006001900020BC
:102EC000754900F032F8002200210720FFF7BCFE10
:102ED0000720FFF7D6FE002200210820FFF7B4FEEE
:102EE0000820FFF7CEFE002200210920FFF7ACFEEC
:102EF0000920FFF7C6FE002200210A20FFF7A4FEEA
:102F00000A20FFF7BEFE002200211720FFF79CFEDB
:102F10001720FFF7B6FE002200212820FFF794FEBD
:102F20002820FFF7AEFE06B010BD0291039001A964
:102F30002046FFF76DBD2DE9F04104460D4620788F
:102F400016461F4640F2451860B931462846FFF73D
:102F500038FE012806D1032239464046FFF709FC16
:102F600001200DE0207801280BD131462846FFF7DB
:102F700028FE30B9069903224046FFF7FAFB0020ED
:102F80002070BDE8F08138B52EA00090434C3F4D35
:102F90002DA3402229462046FFF7CDFF2BA000900D
:102FA0002BA380222946601CFFF7C5FF29A00090B3
:102FB00029A34FF480622946A01CFFF7BCFF27A07D
:102FC000009027A34FF400722946E01CFFF7B3FFDF
:102FD00024A0009024A34FF400622946201DFFF78F
:102FE000AAFF22A0009022A301222946601DFFF71C
:102FF000A2FF31BD022882B040F2451302D1012266
:103000001CA118E0042802D101221BA113E008280A
:1030100002D1012219A10EE0102802D1012218A12B
:1030200009E0202802D1012216A104E0B0F5807F3A
:1030300005D1022214A1184602B0FFF79ABB02B0D4
:103040007047000066620000666500006C62000068
:103050006C65000062620000626500007262000040
:1030600072650000746C6200746C650074726200BA
:10307000747265003200000033000000340000006C
:1030800031000000300000007374000000080240AE
:103090003038024000002110000031108400002070
:1030A0002DE9FC41040017D02078AD4DC10741D572
:1030B000A86800F00C00042807D0A86800F00C00F5
:1030C00008280BD16868410208D52968880331D5E2
:1030D0006068002840F0B58001203FE16068B0F5ED
:1030E000803F06D0B0F5A02F296807D141F4802198
:1030F0002960286840F48030286006E021F480319F
:1031000029602A6822F480222A60606868B1FFF78B
:10311000DFFB06462968880300F19380FFF7D8FBA0
:10312000801B6528F6D3032018E1FFF7D1FB064684
:103130002868810340F18580FFF7CAFB801B652862
:10314000F6D3F0E7FFF7C4FBC01B022840F2A680CD
:10315000E9E7E06870B101213160FFF7B9FB07468C
:103160002868810700F1C180FFF7B2FBC01B02286D
:10317000F6D9D8E73060FFF7ABFB07462868810730
:1031800062D5FFF7A5FBC01B0228F7D9CBE7086083
:10319000FFF79EFB0746686F810774D5FFF798FB22
:1031A000C01B0228F7D9BEE70528286F06D140F0DA
:1031B00004002867286F40F0010005E04008400047
:1031C0002867286F20F00400286741F28937A0683B
:1031D00068B1FFF77DFB8046286F810700F1928080
:1031E000FFF776FBA0EB0800B842F5D39BE7FFF7AB
:1031F0006FFB8046286F810756D5FFF769FBA0EB70
:103200000800B842F6D38EE7FFF762FBC01B022826
:1032100040F2878087E7FFF75BFB001B022840F244
:10322000988080E700203066FFF752FB044628684C
:10323000810140F19280FFF74BFB001B0228F6D979
:1032400071E72078474E81071BD5A86810F00C0F56
:1032500009D0A86800F00C0008287FF47AAF6868ED
:1032600041023FF576AF2968880703D5E068012859
:103270007FF432AF2968206921F0F80141EAC001EA
:103280002960217808070DD56069374900283FF487
:103290007EAF01220A60FFF71BFB0746686F8107BC
:1032A0007FF550AF217848072CD500200090296C7D
:1032B000DFF8B88041F080512964286C00F080501C
:1032C00000900098D8F8001041F48071C8F8001000
:1032D000FFF7FEFA0746D8F80000C1050DD4FFF746
:1032E000F7FAC01B0228F6D91DE72868216920F0EB
:1032F000F80040EAC1002860C3E7A06801287FF415
:1033000053AF57E7A06940B3A96801F00C01082941
:103310003FF4E2AE022885D100203066FFF7D8FAEC
:103320000746286881013FF56FAFE169206AA26A0C
:103330000143606A520841EA8011521EE06A41EA84
:10334000024141EA0061696001213166FFF7C0FA7C
:103350000446286881017FF55EAF0020BDE8F68154
:103360000038024000004742800E47420070004093
:103370002DE9F84304000F4677D04A4E306800F03C
:103380000F00B84202D200F072F86ED12068464DAC
:10339000810712D5400703D5A86840F4E050A86023
:1033A0002178080703D5A86840F46040A860A968A0
:1033B000A06821F0F0010143A9602078C1074CD535
:1033C0006068012802D129688A0305E0022818BF35
:1033D000032803D129688A0103D446E02A689107AB
:1033E00043D5A968890840EA8100A86041F289397B
:1033F000FFF76EFA8046A868616800F00C00B0EB39
:10340000810F2AD0FFF764FAA0EB08004845F2D3F9
:10341000032020E02078410705D5A968E06821F461
:10342000E0510143A9602078010706D5A868216909
:1034300020F4604040EAC100A86000F03FF8AA68AC
:103440001A49C2F30312895C194AC840106000206F
:1034500000F006FA0020BDE8F283306800F00F00AB
:103460008742D7D200F003F8D4D00120F3E73770B9
:10347000316801F00F01B94270470D48006870478C
:103480000B480C4A006813680B49C3F3822206E01C
:103490000748084A006813680749C3F34232895C49
:1034A000C8407047003C0240003802406C3A0008B7
:1034B0000000002008380240A83B000818B5124C54
:1034C000606800F00C00042802D0082802D019E03F
:1034D0000E4812BD00232268206841022068C0F314
:1034E00088104CBF09490A4902F03F02A1FB0001C4
:1034F000FDF738FF2168C1F30141491C4900B0FBC9
:10350000F1F012BD024812BD0438024040787D013E
:103510000024F40038B5040001D1012032BD00F0D0
:1035200022F808B900F023F800F013F800F024F8AE
:10353000FFE7416100F001F832BD2068C16841F445
:103540000051C1600020686020206870A8700020D1
:103550007047242068702068C16821F40051C16060
:10356000204600F09EB804F13805687870470021C5
:1035700029702046FFF7DCBB2068016921F49041E7
:1035800001612068416921F02A0170472DE9F84363
:10359000054605F138070C467878202816469846E7
:1035A0003CD1002C14BF002E012038D038780128DF
:1035B00034D0012139702120002179607870FFF723
:1035C00087F9AE848146EE8403E0296814F8010B84
:1035D0004860E88C28B3E98C481EE8844B46A8680C
:1035E000CDF80080B0F5805F0DD100F024F870B9FF
:1035F00020882968C0F3080048602869002814BFA3
:10360000641CA41CE5E700F016F80028DDD00320B8
:1036100005E0202078700020387000E00220BDE82E
:10362000F283CDF800804B460022402100F005F8DF
:103630000028EED0EBE7002280212846FFE72DE9A5
:10364000F041069C05460E4690461F4628680168D4
:103650003140B1420CBF01200020404517D114F188
:10366000010FF3D024B1FFF733F9C01B8442EDD230
:103670002868C16821F4D07100F00CF805F1380019
:1036800020214170817000210170032000E00020A2
:10369000BDE8F081C160286841694908490041617D
:1036A00070472DE9F0470446642521680A69E068FF
:1036B00022F4405202430A611926CA684748024070
:1036C000A06802432069024360690243E069024343
:1036D000CA604A69A06922F4407202434A61E36900
:1036E0003F48404AB3F5004F3BD1914218BF814259
:1036F00010D1FFF7CDFE0746FFF7CAFE8046FFF761
:10370000C7FE8146FFF7C4FE06FB09F98246FFF7B4
:10371000BFFE0FE0FFF7B4FE0746FFF7B1FE80469D
:10372000FFF7AEFE8146FFF7ABFE06FB09F98246C6
:10373000FFF7A6FE6168490000F056F8DB0032335F
:10374000B3FBF5F35B00B2FBF5F203F4F87300F0A2
:1037500059F8ED0032356420B5FBF0F000F00700B9
:1037600037E0914218BF81420ED1FFF791FE074624
:10377000FFF78EFE8046FFF78BFE8146FFF788FE3F
:103780008246FFF785FE0DE0FFF77AFE0746FFF75A
:1037900077FE8046FFF774FE8146FFF771FE824692
:1037A000FFF76EFE06FB09F96168890000F01CF85E
:1037B0001B013233B3FBF5F3B2FBF5F203F0F00378
:1037C00000F020F82D0132356420B5FBF0F000F058
:1037D0000F002168C3188B60BDE8F087F369FFFF15
:1037E00000140140001001407743B7FBF1F206FBE3
:1037F00008F7B7FBF1F3B9FBF1F7B7FBF5F705FBFA
:103800001733704703EB021306FB0AF74643B7FB77
:10381000F1F2B6FBF1F06421B0FBF1F005FB1025ED
:103820007047000008B584B00023039300290EBF41
:1038300001930190491E0291009301A904AB07482E
:1038400078441830FCF7A0FC019909B100220A70F5
:10385000002858BF039805B000BD00BF6BD9FFFF1B
:1038600010B508490A6804464FF47A70B2FBF0F0CC
:10387000FFF712FA002221464FF0FF30FFF7E4F97C
:10388000002010BD0000002080B500200090002224
:103890002148416841F480414160416801F4804120
:1038A000009100990092036843F080530360006820
:1038B00000F08050009000980320FFF7B8F9002234
:1038C00000216FF00B00FFF7BFF9002200216FF01D
:1038D0000A00FFF7B9F9002200216FF00900FFF795
:1038E000B3F9002200216FF00400FFF7ADF90022C8
:1038F00000216FF00300FFF7A7F9002200216FF00D
:103900000100FFF7A1F9BDE80840002200214FF0B7
:10391000FF30FFF799B900BF403802400024F4009F
:10392000B03B0008B03B0008B03B0008B03B0008CB
:10393000B03B0008B03B0008B03B0008FFFFFFFFB2
:10394000FFFFFFFFB23B0008B03B0008B03B0008A0
:10395000FFFFFFFFFFFF0000B43B00080100000075
:103960000400002000000000000000000000000033
:103970000000000000000000000000000000000047
:1039800000000000000000000000000031110008ED
:10399000000000001F1100080100000000000000EE
:1039A00001010101010100007047FEE7FEE7FEE7AB
:1039B000FEE770477047704780B500F027F8BDE814
:1039C0000140FFF797B90220FFF701B90420FFF784
:1039D000FEB80820FFF7FBB81020FFF7F8B800E0AA
:1039E00000BF0148FEF79ABC1C020020F9E780B531
:1039F0002020FFF7ECF8BDE802404FF48070FFF79D
:103A0000E6B84FF40060FFF7E2B800000248016832
:103A1000491C0160704700BF780300200E48016810
:103A200041F47001016000220C49086840F0010077
:103A300008608A600A480A6802400A600022094851
:103A40004860086820F480200860CA604FF0006079
:103A5000054908607047000088ED00E0003802402A
:103A6000FFFFF6FE1030002408ED00E0000000002B
:103A700000000000010203040607080919E050F8DD
:103A8000042BD30744BFA9F101039A18091F00238F
:103A9000042942F8043BF9D25FEA817C134604D53D
:103AA0004FF0000CA2F800C09B1CC90744BF0021C6
:103AB000197050F8041B0029E1D1704710B450F878
:103AC000041B79B10268436802440830DC0744BF34
:103AD000A9F10104E31852F8044B43F8044B091F01
:103AE000F9D1ECE710BC704710B50749794418319B
:103AF000064C7C44163404E00A68081D11448847CB
:103B00000146A142F8D110BD2C0000004C0000007D
:103B10004EF68851CEF20001086840F4700008604B
:103B2000BFF34F8FBFF36F8F4FF00070E1EE100ABD
:103B30007047000049FFFFFFF40200008C000020E6
:103B40000000000079FFFFFF8C000000D0FDFFFFA8
:103B5000000000200000000000F00DF8002801D057
:103B6000FFF7C2FFAFF300800020AFF30080FEF745
:103B7000B7FE00F002F80120704700F001B8000025
:103B800007463846FEF77EF9FBE70000014880470C
:103B9000014800471D3A00089D3B0008AFF3008034
:103BA000FFF7B6FFFFF7D8FF000000000102030493
:103BB00000002E004300FFF7FEBFFFF7FEBFFFF738
:103BC000FEBFFFF7FEBFFFF7FEBFFFF7FEBFFFF729
:103BD000FEBFFFF7FEBFFFF7FEBFFFF7FEBFFFF719
:103BE000FEBFFFF7FEBFFFF7FEBFFFF7FEBFFFF709
:103BF000FEBFFFF7FEBFFFF7FEBFFFF7FEBFFFF7F9
:103C0000FEBFFFF7FEBFFFF7FEBFFFF7FEBFFFF7E8
:103C1000FEBFFFF7FEBFFFF7FEBFFFF7FEBFFFF7D8
:103C2000FEBFFFF7FEBFFFF7FEBFFFF7FEBFFFF7C8
:103C3000FEBFFFF7FEBFFFF7FEBFFFF7FEBFFFF7B8
:103C4000FEBFFFF7FEBFFFF7FEBFFFF7FEBFFFF7A8
:103C5000FEBFFFF7FEBFFFF7FEBFFFF7FEBFFFF798
:103C6000FEBFFFF7FEBFFFF7FEBFFFF7FEBFFFF788
:103C7000FEBFFFF7FEBFFFF7FEBFFFF7FEBFFFF778
:103C8000FEBFFFF7FEBFFFF7FEBFFFF7FEBFFFF768
:103C9000FEBFFFF7FEBFFFF7FEBFFFF7FEBFFFF758
:103CA000FEBFFFF7FEBFFFF7FEBFFFF7FEBFFFF748
:103CB000FEBFFFF7FEBFFFF7FEBFFFF7FEBFFFF738
:103CC000FEBFFFF7FEBFFFF7FEBFFFF7FEBFFFF728
:063CD000FEBFFFF7FEBF7E
:0400000508003B9D17
:00000001FF
